S02100004578616D706C65466561746865724164616C6F676765724D302E7372656375
S113000000800020B9030000B5030000B503000020
S113001000000000000000000000000000000000DC
S1130020000000000000000000000000B503000014
S11300300000000000000000B5030000B51D000032
S1130040B5030000B5030000B50300005D03000024
S1130050B5030000B5030000B5030000B5030000BC
S1130060B5030000650E0000750E0000850E00004B
S1130070950E0000A50E0000B50E0000B5030000AB
S1130080B5030000B5030000B5030000B50300008C
S1130090B50300000000000000000000B5030000EC
S11300A0B5030000B5030000B5030000B50300006C
S11300B00000000010B5064C2378002B07D1054B37
S11300C0002B02D0044800E000BF0123237010BDC0
S11300D0300100200000000070230000084B10B520
S11300E0002B03D00749084800E000BF0748036815
S11300F0002B00D110BD064B002BFBD09847F9E72D
S11301000000000034010020702300007023000070
S1130110000000000368987AC009704770B50400B5
S113012006680822054B1A60054D2000A8470028E0
S1130130FBD1338802221343338070BD00E100E019
S11301401501000070B50400066808218023064AE2
S1130150D150064D2000A8470028FBD13388022245
S11301609343338070BDC04600E100E015010000F8
S113017070B504000668074B98470023A382E38206
S1130180054D2000A8470028FBD1338801221343E2
S1130190338070BD4501000015010000F0B583B047
S11301A00400019115000668114F2000B84700288B
S11301B0FBD12379002B0AD0012B16D11730012D46
S11301C014D80635AD00019BAB5100200EE017207A
S11301D0022D0BD8074B019A9A4207D86B469B888D
S11301E00C356D00AB53002000E01A2003B0F0BDC5
S11301F015010000FFFF0000F0B583B004001600F5
S113020001602E4A936920210B43936101A90223C3
S11302100B7004202A4B984704202A4B984720004F
S1130220294B9847B378237133796371274B1C604A
S1130230276833883B80B378002B21D01720012B0B
S11302401CD13B889BB23B80F378002B03D03B88C6
S1130250802213433B801E4D2000A8470028FBD179
S11302600022B16820001B4B984733790020002BF3
S113027004D07B888022D20113437B8003B0F0BD7D
S11302803B88042213433B80F3781720002BF5D1DD
S11302900F4D2000A8470028FBD10022B1682000A0
S11302A00C4B98470A4D2000A8470028FBD1012297
S11302B0F1682000074B9847D7E7C0460004004088
S11302C05D080000D107000071010000D401002086
S11302D0150100009D010000F8B504000E0003792B
S11302E01520002B00D0F8BD2768034D2000A84737
S11302F00028FBD1BE82F6E715010000022A0BD0CC
S11303000379002B05D0012B12D11633012A0DD805
S113031002E01723022A09D8931C9B001950838AF0
S1130320012191400B439BB2838200231800704744
S11303301723FBE710B5046802290BD001228A4079
S113034003231340E371C38A01228A4013439BB2FF
S1130350C38210BD8023E371F5E7000010B5144B90
S11303601A681468D18A938A1940207AE379034081
S113037058B2002806DBD8070FD5CB070AD40123CF
S1130380237210BD4B0702D480232372F9E713694B
S11303909847F9E793689847F1E79B07F1D58B07EE
S11303A002D402232372ECE7D3689847F9E7C046E6
S11303B0D4010020FEE70000F8B52A4A2A4B9A42ED
S11303C011D01A00294B9A420DD2294A03339B1AA1
S11303D09B0801339B000022234822498C588450F7
S11303E004329A42FAD1234A234B9A420AD2D34383
S11303F021495B1803218B4304339B18002102C25B
S11304009342FCD11D4AFF211D4B8B439360FD3960
S113041090235B001B4AD1501B4AD3780325AB437E
S113042002242343D370D3780C27BB4308263343D9
S1130430D370164B987B302290432022104398733C
S1130440997BB943314399739A7BAA4322439A73A4
S11304500F4A536880210B4353600E4B98470E4B51
S11304609847FEE770230000000000202C010020C4
S11304700400002030010020F401002000ED00E021
S1130480000000000070004100500041004800419D
S1130490004000411D20000001140000072803D87B
S11304A080000F4B1B589F46002017E00D4B186926
S11304B014E00D4B1B6A9B059B0F0C48D8400DE0C4
S11304C0084B58690AE05023074AD35C00205B07B5
S11304D004D5044BD86801E0802000027047C04670
S11304E0542200004C0100200008004000127A0051
S11304F070B50C490B6A0478857840780122104065
S113050080014026B34303432A40D2018020834321
S113051013430322224012020348034013430B6295
S113052070BDC04600080040FFFCFFFF072803D849
S11305308000154B1B589F46172024E0134A136A6A
S113054002210B43136200201DE0104A936902212B
S11305500B439361002016E00C4A138A02210B43DB
S1130560138200200FE0094A938A02210B439382ED
S1130570002008E0054944228B5C022003438B548D
S1130580002000E0002070477422000000080040B2
S113059030B585B0C222D200194B9A60194A53680B
S11305A01E218B43536001236A4613700024164DA9
S11305B0E0B26946A8470134252CF9D103A80024E8
S11305C04470012585700470104B98470620104B29
S11305D09847104B9847104B1C725C729C720195A3
S11305E06B465C7006236A46137014725472694633
S11305F000200A4B98470020094B984705B030BDAE
S113060000080040004000415D080000F1040000C3
S11306102D050000250600000004004049060000E6
S113062001070000064A936908210B4393610122E4
S1130630044B1A7019000B781342FCD17047C04662
S113064000040040000C004070B5060004000D7862
S11306502D0205434B78002B02D08023DB021D437F
S11306604B7A002B02D080231B031D4348680128CA
S113067010D9431E184234D1022830D90223002253
S113068001325B009842FBD81202324314008023EB
S11306905B031D430B7A002B02D080239B031D4375
S11306A0134A53785BB2002BFBDB124B9847124B77
S11306B01E700F4A53785BB2002BFBDB0C4B9C6023
S11306C01A0053785BB2002BFBDB094A5368802184
S11306D049020B401D435560084B984770BD0022EA
S11306E0D2E70402344380239B021D43D2E7C04671
S11306F0000C004091090000080C0040D1090000E2
S113070010B504000B4A53785BB2002BFBDB0A4B99
S113071098470A4B1C70074A53785BB2002BFBDBEB
S1130720044A516880235B020B435360044B98478F
S113073010BDC046000C004091090000040C0040AC
S1130740D109000070B504001A4A53785BB2002B3B
S1130750FBDB194B9847194B1C70164A53785BB254
S1130760002BFBDB134E7068C004C00E144B98477B
S11307700500124B1C707668F602F60F114B1C70C4
S11307800C4A53785BB2002BFBDB0A4B9C682402B7
S1130790240C0D4B9847002E07D1012C07D92100BA
S11307A028000A4B9847050001E00134E540280081
S11307B070BDC046000C004091090000040C0040CC
S11307C09D040000080C0040D1090000811E0000B7
S11307D010B50400064B9847064B1C70064A538814
S11307E08021C9010B435380044B984710BDC04678
S11307F091090000020C0040000C0040D1090000E7
S113080010B504000F4B98470F4B1C700F4A5388C8
S11308101B05180F53880E490B40538053880D490C
S11308200B40538011008022D2014B881342FCD12B
S113083006494A8803020648024013434B80064B8C
S1130840984710BD91090000020C0040000C0040C4
S1130850FFF0FFFFFFBFFFFFD109000010B50C78C8
S113086024020443024B9847A4B2024B5C8010BD9F
S113087001080000000C004010B50400064B984726
S1130880064B1C70064B5C882405240F054B9847C7
S11308902000054B984710BD91090000020C004050
S11308A0000C0040D10900004507000030B5D378A2
S11308B0002B35D11378802B29D01B0680246402A9
S11308C0234354780225AC4306D19478002C20D1DC
S11308D08024A402234341605478013C012C1CD998
S11308E00D042D0CA024E4052C431C4384620D0C40
S11308F0D02424062C431C438462D478002C22D1B7
S11309005B031CD59378012B1ED0416117E00023B3
S1130910D7E7C024E4022343DDE70D4C2340DFE79F
S113092041600C04240CA023DB05234383620C0CDC
S1130930D0231B0623438362D378002B03D153783F
S1130940013B012B02D930BD8161F8E78160FAE7F0
S1130950FFFFFBFF10B50A00C1090023002904D1E1
S11309604309DB0105498C4663441F2420400121CF
S113097081401800024B984710BDC0460044004116
S1130980AD08000010B5014B984710BD910500005B
S11309900C4B1B68002B06D1EFF31083002B07D000
S11309A00022094B1A70074A136801331360704719
S11309B072B6BFF35F8F0022044B1A700132024BF0
S11309C01A70F0E764010020680100200400002090
S11309D0084B1A68013A1A601B68002B09D1064BB0
S11309E01B78002B05D00122044B1A70BFF35F8FD4
S11309F062B67047640100206801002004000020F2
S1130A0010B5490840230024814202D2180010BDC9
S1130A101C00091A631C9BB28842F9D94023FF2C9D
S1130A20F4D814800023F1E7F0B5DE4657464E466D
S1130A304546E0B589B00C00059212AA117805006C
S1130A404D434022A54207D9100009B03CBC904652
S1130A509946A246AB46F0BD002B55D102000800D2
S1130A600021634DA8478346260000270023002465
S1130A7000930194002200233F2020218C461F393B
S1130A800296039714E06446241A0D00E540A84634
S1130A9015E0029C039D121BAB414D46009E019F35
S1130AA035433C00464634430095019401381DD338
S1130AB0202464420419E6D40D00A540A8460C0085
S1130AC08440A14692185B4114001D0046465F46CF
S1130AD03E4203D00E00264332002B00029C039DAD
S1130AE09D42E3D8D5D19442E0D8D2E70022012335
S1130AF000980199121A8B411900130C0A041A4325
S1130B00059B1A8000229FE70022012BF8D1630F76
S1130B100493E30098460A0000230021344CA047C4
S1130B2004000D0000239C46069320339B460126B7
S1130B306346079348E05946C91B3000C8408246C3
S1130B4010E000980199121A8B410299484601431A
S1130B500291013F25D3202149427918EBD430007A
S1130B60884082463100B940894692185B411000A2
S1130B70190044464D462C40A4465446049D2C403E
S1130B80A246644655462C4303D034000443220055
S1130B900B00009801999942DBD8D2D19042D8D861
S1130BA0CFE7009C019D0299079A8B1ADB08114933
S1130BB08B4214D9069B0133DBB219000693130050
S1130BC001330793082908D000230293002200234D
S1130BD03F21009401950F00BDE7402234E74022F5
S1130BE00699082900D12FE74A031A4388E7C0462B
S1130BF0991F0000FF1F000010B582B004000E4BC7
S1130C001B78002B07D0002905D10B4B5B7883425E
S1130C1010D01D200CE001A90C701320074B98473D
S1130C201320074B9847044B5C7001221A70002074
S1130C3002B010BD0020FBE76C0100205D0800003D
S1130C40D1070000404B984231D00AD93F4B98421B
S1130C504DD03F4B98425AD03E4B984237D000205B
S1130C6070473D4B98420CD03C4B9842F7D1012938
S1130C7017D000295DD0022915D0032915D00020F2
S1130C80EEE7012907D0002951D0022905D0032914
S1130C9005D00020E4E73248E2E73248E0E7324892
S1130CA0DEE73248DCE73248DAE73248D8E70129A0
S1130CB007D000293FD0022905D0032905D0002000
S1130CC0CEE72D48CCE72D48CAE72D48C8E70129CF
S1130CD007D0002931D0022905D0032905D00020EE
S1130CE0BEE72848BCE72848BAE72848B8E70129FE
S1130CF007D0002923D0022905D0032905D00020DC
S1130D00AEE72348ACE72348AAE72348A8E701292C
S1130D1007D0002915D0022905D0032905D00020C9
S1130D209EE71E489CE71E489AE71E4898E71E481F
S1130D3096E7032094E71D4892E71D4890E71D4875
S1130D408EE71D488CE7C0460010004200180042A0
S1130D50001C00420014004200080042000C004243
S1130D600300050003000600030007000300010060
S1130D7003001E0003001F000300090003000A0013
S1130D8003000B0003001100030012000300130012
S1130D9003000D0003000E0003000F000300170002
S1130DA003001800030019000300040003000800F6
S1130DB00300100003000C000300160030B587B0D8
S1130DC00B4B6A4632CB32C232CB32C2009B8342D7
S1130DD00BD001239A0069465258824206D001334F
S1130DE0062BF7D1002007B030BD0023D8B2FAE7B4
S1130DF09422000070470000F0B50A4B1B78002BCA
S1130E000CD1094F094E0A4D0024DE515A191460C1
S1130E100433182BF9D10122024B1A708000024BC3
S1130E20C150F0BD6E01002070010020F50D0000DE
S1130E30D801002000B583B009236A46137001333A
S1130E405370013393700133D37001331371013341
S1130E505371034B98476B46185603B000BDC04608
S1130E60BD0D000010B5024B1B680020984710BD53
S1130E707001002010B5024B5B680120984710BD3B
S1130E807001002010B5024B9B680220984710BDEA
S1130E907001002010B5024BDB680320984710BD99
S1130EA07001002010B5024B1B690420984710BD47
S1130EB07001002010B5024B5B690520984710BDF6
S1130EC070010020F0B5DE4657464E464546E0B573
S1130ED091B005000C00160029600800BE4B98472D
S1130EE0020023680520DB0706D511B03CBC904600
S1130EF09946A246AB46F0BD236817309B07F4D44D
S1130F00B649086A971C0123BB4003430B620FA92F
S1130F102D27F35D0B701432D3B203931800B04B3A
S1130F2098470398AF4B9847F05D0021AE4B984724
S1130F30F37A6B712423F35CAB712523F35CEB71BF
S1130F40F37E2B72337F6B722B6803931800A24BD2
S1130F509847143000220E2306A98C4663441A8055
S1130F60338A98468023DB01984500D19FE00ED94F
S1130F70C023DB01984500D194E080231B029845EF
S1130F8000D024E1032306930023079308E0802381
S1130F909B01984500D01AE1102306930F3B079359
S1130FA033680593F368994673699B46337E0493CB
S1130FB02623F35C9A467368002B00D1A2E08022BA
S1130FC05205934200D186E0737E002B02D0B37E9B
S1130FD0039A93732A68039FD369002BFCD1039768
S1130FE00E3306A98C4663441B88BB81059A4B4685
S1130FF01A435B461A4373681A4343461A43049BD5
S11310001B021A4353465B071A432723F35C002B46
S113101001D104331A43717E8902337F5B02194381
S1131020B37AF07A03431943737F1B0219432423D1
S1131030F35C5B0419432523F35C1B0419433389D4
S1131040FF2B00D186E0F07E00287FD0A020C004D2
S1131050024319432C23F35C002B03D1634B9B788D
S11310609B0701D580231A432868039FC369002B7B
S1131070FCD179602968CB69002BFCD13A600EABB6
S113108080221A7000225A70DA709A70336B0A93B5
S1131090736B0B93B36B0C93F36B03930D93002758
S11310A00AAE66E008230693073B079378E73368A4
S11310B00593F368994673699B46337E049326230C
S11310C0F35C9A467368002B18D080225205934231
S11310D001D0002025E02723F35C002B00D073E728
S11310E0336A1F00C0B2424B984701000E2206AB80
S11310F09C46624438003F4B984712E0082306930D
S1131100002307932723F35C002B0ED0069B009348
S1131110079B0E2206A98C466244B16A306A364F98
S1131120B847002800D0E0E64EE7336A1F00C0B29B
S11311302F4B98470100069B0093079B0E2206A89D
S11311408446624438002C4FB847EAE780204004C4
S113115002437EE7F37E002B00D17BE78023DB0490
S11311601A4377E72000254B984707E00137042FFF
S11311700DD0F9B2BB0098590028F3D0431CF5D028
S11311800EA90870000CC0B21D4B9847EEE700236F
S1131190EB602B616B61AB61EB612B62AB626B62E9
S11311A00022EB85AB853033EA540133EA54013332
S11311B0EA540133EA542868074B9847040011495C
S11311C0114B9847A400114BE55000208DE61023E5
S11311D0069300230793E3E6BD0D000000040040DE
S11311E05D080000D1070000F90B00000020004159
S11311F079080000010A0000290A0000450C0000DB
S11312005509000011120000F90D0000D80100205A
S1131210F8B58000674BC5582C68E369002BFCD1F6
S1131220237EA67D1E403023EB5C3122AF5C1F4041
S1131230F30722D5EB8D9BB2002B1CD0AA6A13783E
S1131240DBB2511CA962697901290ED09BB2DB057E
S1131250DB0D2385EB8D013B9BB2EB85002B0CD181
S1131260013323750133A37507E0517809020B4359
S11312700232AA62EBE701232375B30706D50223E2
S1131280237500223133EA54FB071CD473076FD54E
S1131290AB8D9BB2002B69D0638BDBB21A0716D4DB
S11312A03F221340002B3ED09A0713D51A22322333
S11312B0EA54638B183A134363837B0758D5280099
S11312C06B69984754E02800EB689847DEE73722BB
S11312D01340E7E75A0707D51E223223EA54638BEB
S11312E01A3A13436383E8E7DA0707D51322322354
S11312F0EA54638B123A13436383DEE7DA0607D5B5
S113130042223223EA54638B323A13436383D4E791
S113131020221A42D1D021323223EA54638B213A5B
S113132013436383C9E7238DDB05DB0DDAB2696AF6
S11313300A706A6A511C69626979012910D0AB8DFF
S1131340013B9BB2AB85002B12D1043323750022E1
S11313502E33EA54BB070BD528002B69984707E0C6
S11313601B0A53706B6A01336B62E8E7042323752D
S1131370F30604D5102323752376FB060ED4B30697
S113138004D52023237523763B070BD4330704D5D8
S1131390082323752376BB0608D4F8BD2800EB691F
S11313A09847ECE72800AB699847EFE72B6A2800D9
S11313B09847F2E7D801002000B583B001AB802242
S11313C01A700A785A704A789A708A78DA70190012
S11313D0014B984703B000BD550900000300064ABD
S11313E01268002A04D0044A1068C31813607047B6
S11313F00249014A1160F6E788010020F801002043
S113140010B5024B9847002010BDC04611140000CF
S1131410F0B5C64600B58CB01422002308A8204CB1
S1131420A0476422002304A8A0471E4901A81E4B1C
S11314309847002398461D4E1D4D1E4C09E0B422CA
S1131440002304A81C498847B84600211B481C4BAC
S113145098473000A84708A8A04704A8A047002838
S1131460F7D06B46DF1C39001448164B98473F7879
S1131470002F0BD04346002BE1D0C322920000235F
S113148004A80D49884700239846DEE71422002368
S113149004A80949884701210848094B9847D8E717
S11314A07D180000AC220000051700009001002008
S11314B0B9160000C1180000A9180000B4220000E9
S11314C0BD17000029180000F0B583B001900E008C
S11314D0114B1C68002C05D02369002B02D00E4D43
S11314E00E4F0CE0002333600B20404203B0F0BDEC
S11314F06C68002CF6D004352369002BF2D02378D5
S1131500012BF5D1601C0199B8470028F0D163691B
S113151033600020EAE7C0460800002019220000DA
S1131520F0B583B001900E00114B1C68002C05D05F
S11315302369002B02D00E4D0E4F0CE000233360C4
S11315400B20404203B0F0BD6C68002CF6D004358B
S11315502369002BF2D02378032BF5D1601C019969
S1131560B8470028F0D1636933600020EAE7C04639
S11315700800002019220000F0B583B001900E008D
S1131580114B1C68002C05D02369002B02D00E4D92
S11315900E4F0CE0002333600B20404203B0F0BD3B
S11315A06C68002CF6D004352369002BF2D0237824
S11315B0042BF5D1601C0199B8470028F0D1636968
S11315C033600020EAE7C04608000020192200002A
S11315D0F0B583B001900E00114B1C68002C05D0AF
S11315E02369002B02D00E4D0E4F0CE00023336014
S11315F00B20404203B0F0BD6C68002CF6D00435DB
S11316002369002BF2D02378022BF5D1601C0199B9
S1131610B8470028F0D1636933600020EAE7C04688
S1131620080000201922000070470000F0B5CE46E3
S1131630474680B583B0019010220021184B98478B
S1131640184B1C682369002B23D0164D164BEE183B
S1131650164B994698460EE03420C847071E02D020
S11316602100134B98476761B54212D06C6804356A
S11316702369002B0DD02378012BEDD0022BF3D15D
S11316801820C047071E02D021000A4B9847676103
S1131690EAE7019803B00CBC90469946F0BDC046F9
S11316A07920000008000020FC0F00002D19000024
S11316B0411B00007D1B00007047000070B5094C01
S11316C02000094B9847094E320009492000094C73
S11316D0A047094D2800094B9847320008492800C3
S11316E0A04770BD8C010020A11D00000000002057
S11316F0B11D0000691E0000900100202D1600009D
S11317002916000030B585B004000D000C2200211C
S1131710194B984769462800184B9847002806D16A
S1131720009B636001236370200005B030BD01A9F4
S11317302800134B9847002804D1019B63600323BE
S11317406370F1E702A928000E4B9847002804D1E2
S1131750029B636004236370E6E703A928000A4B35
S11317609847002803D0002363706360DCE7039B81
S1131770636002236370D7E779200000C914000076
S11317802115000079150000D115000010B542683C
S1131790002A08D04378002B08D0012B09D110006F
S11317A0054B984710BD11204042FBE711204042F1
S11317B0F8E708204042F5E7E119000010B584B0CD
S11317C00C00010001A8044B9847210001A8034B19
S11317D0984704B010BDC046051700008D170000DF
S11317E010B582B00C004268002A12D04378002B56
S11317F012D0012B13D101A910000A4B9847019B69
S1131800002B03D00123237002B010BD00232370EA
S1131810FAE711204042F7E711204042F4E708209C
S11318204042F1E7A51A000010B584B00C00010095
S113183001A8044B9847210001A8034B984704B022
S113184010BDC04605170000E117000030B500299F
S113185005D180231B06C2681343C36030BD064B09
S11318601A685B680468456812196B4182605B0002
S11318705B08C360F2E7C046A801002070B504000D
S113188016001D0010220021054B984726606D00AC
S11318906D08656001212000024B9847200070BD4F
S11318A0792000004D18000010B502605B005B0851
S11318B043600121014B984710BDC0464D180000FC
S11318C070B58168C368002B13DB0B4A1468556834
S11318D05B005B086A005208934201D9002070BD86
S11318E0934201D1A142F9D80121044B9847012028
S11318F0F5E70020F3E7C046A80100204D180000DA
S113190010B5054C2000054B9847054A05492000B1
S1131910054B984710BDC046A00100206519000082
S11319200000002089190000691E000010B50100A4
S11319300120014B984710BDED1F000010B5002891
S113194001D0014B984710BD6520000010B5041E5E
S113195004D00068002801D0014B9847200010BD36
S11319606520000010B5040008220021044B9847AC
S113197004210120034B98472060200010BDC0467D
S113198079200000ED1F0000F8B5041E1ED0036886
S1131990002B1BD04368002B15D00D4F0D4E04E0D7
S11319A06368013B6360002B0DD00B4A944663448B
S11319B09B0022689D58002DF2D02800B8471021C2
S11319C02800B047ECE72068044B98472000F8BD96
S11319D04D190000771E0000FFFFFF3F6520000047
S11319E0002822D043681B699A7C0020002A12D167
S11319F01A7C002A02D001228A4311001B7BDA09D7
S1131A000020002A08DD1F221A40012393400029E8
S1131A1008D14361002070475809C001044A944624
S1131A206044F0E783610020F5E702204042F2E7DA
S1131A3000440041002830D043681B699A7C002090
S1131A40002A0FD11A7C002A13D0197BCA0900235B
S1131A50002A08DD186A1F220A4001239340184017
S1131A604342584170474B09DB010D4A9446634495
S1131A70F0E7197BCA090023002A08DD186A1F222F
S1131A800A40012393401840431E9841EAE74B095A
S1131A90DB01034A94466344F0E70020E2E7C046D2
S1131AA00044004110B50C00002804D0034B9847B3
S1131AB02060002010BD02204042FBE7351A0000E0
S1131AC010B582B000282FD043681C69A37C002B7A
S1131AD02DD11F22E3681A40012393400361012999
S1131AE017D000291AD002290DD0032922D101AB25
S1131AF000221A7001325A70207B01A90F4B9847BB
S1131B00002002B010BD01AB00221A7002325A70DC
S1131B10F2E701AB00221A705A70EDE701AB022222
S1131B201A7000225A70E7E702204042E9E70520D4
S1131B304042E6E705204042E3E7C046B91300000F
S1131B4070B504000D0034220021094B98472B780E
S1131B50012B01D0200070BD65602D69697C2000D7
S1131B60044B984769692000034B9847F2E7C04645
S1131B7079200000C11A0000E1190000F0B591B00D
S1131B8005000C1E06D0182200216B4B98472378C1
S1131B90022B02D0280011B0F0BD661C0522674953
S1131BA03000674B9847002809D007226549300068
S1131BB0634B984700283CD0F5232B70EAE7A379C0
S1131BC0303BDBB2052B02DDF5232B70E2E76B74AF
S1131BD08022D205009200220192FF2168460181F1
S1131BE000218272C272962080010890012024266E
S1131BF06F46B8550136B85525303A5401303A5439
S1131C000A928820400303902C203A5401303A541D
S1131C100E920F9205923A82FA763976397779766E
S1131C201322BA767977052B61D89B00464AD3589C
S1131C309F46FA232B70ADE7444B0C93444B0D9312
S1131C40444F34210120444B9847061E52D06C6007
S1131C502369E860802252030392012252420E92C9
S1131C600F925A6908929A7E022A46D0012A48D0D5
S1131C701A7E002A4AD105326946CA725B7E012B5C
S1131C8056D06A4639003000344B984734682000F7
S1131C90334B98471F2318401E3B8340314A13603F
S1131CA03268D369002BFCD12368022213432360DA
S1131CB070E703230C932C4B0D932C4FC1E72C4B53
S1131CC00C932C4B0D932C4FBBE72C4B0C932C4BB0
S1131CD00D932C4FB5E72C4B0C932C4B0D932C4FA1
S1131CE0AFE72C4B0C932C4B0D932C4FA9E7EA2315
S1131CF02B704FE7FD232B704CE7002269460A81C5
S1131D00B6E78022920169460A81B1E7012A07D029
S1131D10022A09D0042AB1D1033A6946CA72ADE74E
S1131D2005326946CA72A9E705326946CA72A5E74F
S1131D303F336A469372A4E779200000D42200005E
S1131D402D220000DC220000BC220000030004005D
S1131D500300050000080042ED1F0000C50E00004E
S1131D60350E000000E100E003000100000C004219
S1131D7003000800030009000010004203001000E3
S1131D80030011000014004203000C0003000D00C6
S1131D90001800420300160003001700001C004254
S1131DA010B50400014B9847200010BD85090000C0
S1131DB07047000030B505490A684B6801240025C6
S1131DC012196B410A604B6030BDC046A801002067
S1131DD07047000030B585B0050000236A46D37013
S1131DE00293039313809370012313710B4C0C49DA
S1131DF020000C4B984720000B4B984702220B49BC
S1131E0020000B4B9847022120000A4B98472021C1
S1131E102000094B9847280005B030BDB0010020D0
S1131E2000140040F90100001D010000B51D000070
S1131E30FD02000035030000D902000010B5054C76
S1131E402000054B9847054A05492000054B984753
S1131E5010BDC046C8010020D51D000000000020B0
S1131E60D11D0000691E00000B0010B50100180010
S1131E7000F0C6F810BD10B5FFF760FD10BD0000FE
S1131E80002243088B4274D303098B425FD3030AB5
S1131E908B4244D3030B8B4228D3030C8B420DD3C8
S1131EA0FF22090212BA030C8B4202D31212090256
S1131EB065D0030B8B4219D300E0090AC30B8B4294
S1131EC001D3CB03C01A5241830B8B4201D38B0342
S1131ED0C01A5241430B8B4201D34B03C01A5241E7
S1131EE0030B8B4201D30B03C01A5241C30A8B422A
S1131EF001D3CB02C01A5241830A8B4201D38B0215
S1131F00C01A5241430A8B4201D34B02C01A5241B8
S1131F10030A8B4201D30B02C01A5241CDD2C3092A
S1131F208B4201D3CB01C01A524183098B4201D3A6
S1131F308B01C01A524143098B4201D34B01C01A91
S1131F40524103098B4201D30B01C01A5241C30809
S1131F508B4201D3CB00C01A524183088B4201D378
S1131F608B00C01A524143088B4201D34B00C01A64
S1131F705241411A00D20146524110467047FFE7D0
S1131F8001B5002000F006F802BDC0460029F7D0D4
S1131F9076E770477047C046F0B5CE46474615040D
S1131FA02D0C2E0080B50704140C3F0C9946030C2D
S1131FB07E435D43674363437F19340CE4199C46B5
S1131FC0A54203D980235B029846C4444B4651433F
S1131FD043433604360C250C24046544A4195918CB
S1131FE0491920000CBC90469946F0BD10B5034B2E
S1131FF00A000100186800F047F810BDC80000206E
S113200070B5054C05001300201E04D00A00022000
S1132010290000E000BF70BD0000000070B500267C
S11320200C4D0D4C641BA410A64209D1002600F0EF
S113203089F90A4D0A4C641BA410A64205D170BD4F
S1132040B300EB5898470136EEE7B300EB589847D6
S11320500136F2E750230000502300005023000013
S11320606023000010B5034B0100186800F01AF853
S113207010BDC046C800002003008218934200D15E
S1132080704719700133F9E74A4370B51100140021
S113209000F052F8051E03D022000021FFF7ECFFE8
S11320A0280070BD70B50500002910D00C1F2368EE
S11320B0002B00DAE418280000F0C9F81D4A136860
S11320C0002B05D163601460280000F0C1F870BDD6
S11320D0A34209D9216860188342F3D118685B6868
S11320E041182160EEE713005A68002A01D0A24289
S11320F0F9D919685818A0420BD120680918581842
S113210019608242E0D110685268411819605A601F
S1132110DAE7A04202D90C232B60D5E721686018C6
S1132120824203D1106852684118216062605C6089
S1132130CAE7C046CC010020032370B5CD1C9D43E3
S1132140083506000C2D1ED20C25A9421DD83000DE
S113215000F07DF8254A14682100002919D1244C87
S11321602368002B03D1300000F044F820602900DC
S1132170300000F03FF8431C2CD10C2330003360B6
S113218000F066F803E0002DDFDA0C233360002052
S113219070BD0B685B1B1AD40B2B03D90B60CC18D6
S11321A0256003E08C420ED163681360300000F0B8
S11321B04FF8200007220B30231D9043C31AE7D0A9
S11321C05A42E250E4E74B6863600C00EEE70C000F
S11321D04968C2E70323C41C9C43A042E0D0211AEF
S11321E0300000F007F8431CDAD1C6E7CC01002028
S11321F0D0010020002370B5064C050008002360C0
S1132200FFF7ECF8431C03D12368002B00D02B60AC
S113221070BDC046F001002002780B78002A03D07C
S1132220013001319A42F7D0D01A7047002330B5FB
S11322309A420AD0013AC45CCD5CAC4204D19A42C1
S113224002D00133002CF6D1631B180030BD704757
S113225070470000AC040000A8040000A8040000BB
S1132260D8040000D8040000C0040000B204000038
S1132270C6040000580500003805000038050000B9
S1132280840500004A050000660500003C050000C6
S11322907405000000080042000C004200100042D7
S11322A00014004200180042001C00427561727460
S11322B02D3500006C65642D30000000381C0000D2
S11322C0B21C0000BE1C0000CA1C0000D61C00008A
S11322D0E21C0000756172742D0000007573626366
S11322E064632D00000000000000000000000000F6
S11322F000000000000000000000000000000000DA
S113230000000000000000000000000000000000C9
S113231000000000000000000000000000000000B9
S113232000000000000000000000000000000000A9
S11323300000000000000000000000000000000099
S113234000000000F8B5C046F8BC08BC9E467047C3
S1132350DD000000BD160000011900003D1E000054
S1132360F8B5C046F8BC08BC9E467047B5000000EE
S11323700000000001000000340000206400002080
S1132380940000201C000020FFFFFFFF00696F5431
S113239061626C65456E640000000000000000008E
S11323A000000000016C65642D3000000000000096
S11323B0000000004C000020000000006C65642D4B
S11323C030000000000000001100000000000000C8
S11323D000000000016C65642D3100000000000065
S11323E0000000007C000020000000006C65642DEB
S11323F031000000000000000600000000000000A2
S11324000000000002756172742D350000000000A8
S113241000000000AC000020000000007561727430
S11324202D35000000000000000000000000000046
S113243000C2010003000000CC00002000000000E6
S11324400423000024230000E42200000000000014
S11324500000000000000000000000000000000078
S11324600000000000000000000000000000000068
S11324700000000000000000000000000000000058
S11324800000000000000000000000000000000048
S10F24900000000000000000000000003C
S90303B940
