S02000004578616D706C65586D6567615F45355F58706C61696E65642E73726563D9
S113000090C10000B6C10000B4C10000B2C100003C
S1130010B0C10000AEC10000ACC100000C941018C7
S1130020A8C10000A6C10000A4C10000A2C1000034
S1130030A0C100009EC100009CC100009AC1000044
S113004098C1000096C1000094C1000092C1000054
S113005090C100008EC100008CC100008AC1000064
S113006088C100000C941D1784C1000082C10000E7
S113007080C100007EC100007CC100007AC1000084
S113008078C1000076C1000074C1000072C1000094
S113009070C100006EC100006CC100006AC10000A4
S11300A068C1000066C100000C9455176364696E52
S11300B06F70737578585B0001020408102040804B
S11300C00600060820800000000000005F00000019
S11300D00000070007000000147F147F1400242A86
S11300E07F2A120023130864620036495522500007
S11300F00503000000001C224100000041221C00F6
S11301000000082A1C2A080008083E08080050308D
S11301100000000008080800000030300000000063
S11301202010080402003E5149453E00427F400031
S113013000004261514946002141454B31001814E9
S1130140127F10002745454539003C4A4949300093
S11301500171090503003649494936000649492910
S11301601E0036000000000056360000000008148F
S1130170224100001414140000004122140800005D
S1130180020151090600324979413E007E11117E77
S113019000007F49493600003E41412200007F4172
S11301A0221C00007F49494100007F090901000029
S11301B03E41513200007F08087F0000417F41002A
S11301C000002040413F01007F08142241007F408D
S11301D0400000007F0204027F007F0408107F00BB
S11301E03E41413E00007F09090600003E41512185
S11301F05E007F1929460000464949310000017F0D
S1130200010000003F40403F00001F2040201F002D
S11302107F2018207F00631408146300030478040B
S113022003006151494543007F414100000002043D
S11302300810200041417F00000004020102040074
S113024040404000000001020400000020545478A3
S113025000007F484438000038444400000038441B
S1130260487F0000385454180000087E090100003B
S11302700814543C00007F0804780000447D4000CA
S113028000002040443D00007F1028440000417FCE
S1130290400000007C04180478007C080478000006
S11302A03844443800007C14140800000814187CF6
S11302B000007C0804080000485454200000043F57
S11302C0444000003C40207C00001C2040201C00D6
S11302D03C4030403C004428102844000C50503C22
S11302E000004464544C44000836410000007F0080
S11302F000000000413608000000082A1C08000025
S1130300081C2A0800001436773614000102040879
S113031010204080530EBD1111134E18C411151333
S1130320521811241FBECFEFCDBFDFE2DEBF12E2B1
S1130330A0E0B0E2E6EFFDE302C005900D92AA3220
S1130340B107D9F723E2AAE2B2E201C01D92AA31B1
S1130350B207E1F711E0CEE8D1E004C02197FE0135
S11303600E94FE19CA38D107C9F70E944F0F0C9496
S1130370EF1E46CEDC015296ED91FC9153973097D7
S113038039F0DA968D919C91DB97099580E0089578
S113039088EF0895AF92BF92CF92DF92EF920F93BE
S11303A01F93DC015A96ED91FC915B97309769F0AD
S11303B02115310551F00115110539F0DA968D91A9
S11303C09C91DB97099580E001C088EF1F910F9104
S11303D0EF90DF90CF90BF90AF9008954F925F92CF
S11303E06F927F92CF92DF92EF92FF920F931F93BF
S11303F0DC01280139015C96ED91FC915D97309701
S113040061F097018601CB01BA01A201DA968D91C0
S11304109C91DB97099580E001C088EF1F910F91B3
S1130420FF90EF90DF90CF907F906F905F904F9010
S11304300895CF92DF92EF92FF920F93DC0194968E
S1130440ED91FC919597309739F0DA968D919C91C6
S1130450DB97099580E001C088EF0F91FF90EF9042
S1130460DF90CF900895AAE0B0E0E9E3F2E00C94C5
S11304701F1A89879A87A982BA82CB82DC825B01A0
S1130480A20EB31E4B01821A930A9A01200F311F48
S11304901A01201A310AEE20A9F0A818B908C98057
S11304A0DA80EB80FC8001E0A501B401C2DFC980E1
S11304B0DA80EB80FC809101A501B40189859A85DD
S11304C0B8DF42C02901330F66087708C501BB0CA9
S11304D0AA0BBB0B8D839E83AF83B887C980DA8058
S11304E0EB80FC8093018201AC01BD0189859A8572
S11304F075DF092C000CAA08BB08C980DA80EB80E0
S1130500FC8093018201B501A40189859A8566DF87
S11305102101330C66087708C980DA80EB80FC80FF
S1130520930182014D815E816F81788589859A85E9
S113053055DFC980DA80EB80FC8093018201B5012C
S1130540A40189859A854ADF2A96E2E10C94381A37
S1130550CF92DF92EF92FF920F93DC019696ED918A
S1130560FC919797309739F0DA968D919C91DB97AF
S1130570099580E001C088EF0F91FF90EF90DF9024
S1130580CF900895A5E3B0E0E8ECF2E00C941F1AD4
S11305908CAB9DAB6F8F78A34D8B5E8B09A7260127
S11305A03701DC019E96ED91FC919F97309731F0D5
S11305B0DA968D919C91DB97099578C1190181E0B8
S11305C090E09C01221933092F8B388F19821A82EB
S11305D01B821C821D8E1E8E41E050E049A35AA34B
S11305E01BA21CA265E070E06DA37EA38F8D98A171
S11305F0092E000CAA0BBB0B8AA79BA7ACA7BDA70F
S11306002D893E89032E000C440B550B2EA73FA7C2
S113061048AB59AB49815A814AAB5BABAF8CB8A0AC
S1130620A41AB50A8F8D98A1820D931D898F9A8F74
S1130630AF8DB8A1A219B309AD87BE872D893E89B4
S1130640240F351F2D833E836D897E89641B750BB2
S113065069877A878D889E88820C931CAD89BE89B0
S1130660A219B309AFA3B8A7B9A5BB2309F43DC028
S11306702BA13CA12815390591F07301620101E019
S113068094014D8D5E8DB5018CA99DA9D2DE2FA15B
S113069038A54D8D5E8DB5018CA99DA9CADE4DA1ED
S11306A05EA16D817E814617570709F4C3C0A98CEA
S11306B0BA8C8D859E85A81AB90A7301620101E07E
S11306C09B01A501BC018CA99DA9B3DE29853A85AE
S11306D0A5016D857E858CA99DA9ABDE8BA29CA20C
S11306E0AD81BE81ADA3BEA3A7C09401990C440BF8
S11306F0550B298B3A8B4B8B5C8B730162018901FF
S11307009A0149815A816B817C818AA59BA5ACA5FC
S1130710BDA5480F591F6A1F7B1F4D835E836F83DE
S113072078878CA99DA95ADE298D3A8D032E000C59
S1130730440B550B298F3A8F4B8F5C8F89809A809D
S1130740AB80BC804EA55FA568A979A9840E951ECF
S1130750A61EB71E95018401498D5A8D6B8D7C8D23
S11307608CA99DA93BDE09891A892B893C898AA514
S11307709BA5ACA5BDA549815A816B817C81841B55
S1130780950BA60BB70B89879A87AB87BC87AC01FF
S1130790BD018CA99DA922DE6D857E85072E000CE6
S11307A0880B990B6D877E878F87988B95018401C1
S11307B0AB01BC018CA99DA911DE8EA59FA5A8A99A
S11307C0B9A929813A814B815C81821B930BA40BCB
S11307D0B50B898B9A8BAB8BBC8B8C019D01498D9E
S11307E05A8D6B8D7C8D8CA99DA9F8DD4FA158A5E0
S11307F04A01550FAA08BB08950184014D815E8109
S11308006F8178858CA99DA9E9DD950184014985CD
S11308105A856B857C858CA99DA9E0DD09891A8997
S11308202B893C894D855E856F8578898CA99DA926
S1130830D5DD02C08BA29CA26F89788D29A13AA133
S113084077FF08C08D8D9E8D0396680F791F6F8B7F
S1130850788F11C08AA99BA982199309880F991FBF
S11308600596AF89B88DA80FB91FAF8BB88FA101BA
S1130870415051091A0169A17AA16F5F7F4F69A3A1
S11308807AA38D8D9E8D02968D8F9E8F49815A817C
S11308906B817C814F5F5F4F6F4F7F4F49835A83DA
S11308A06B837C83221633060CF0B4CE80E0E5968D
S11308B0E2E10C94381AA2E3B0E0E1E6F4E00C942F
S11308C01F1A8F87988B1B012A0129873A873801C1
S11308D01E2DAB8ABC8ACD8ADE8ADC01D096ED91CE
S11308E0FC91D197309739F08301DA968D919C91E0
S11308F0DB970995C9C2C984DA84C61AD70ACD869A
S1130900DE86F301E41BF50B113009F0ABC05F0187
S11309104601880C991C7F01EE0CFF1CE982FA82C7
S11309209601D7FE0DC03195219531092D873E875B
S11309309194819491084FEF5FEF4D835E8304C0DF
S113094061E070E06D837E83F7FF10C0AA24BB24AE
S1130950AE1ABF0A89819A819195819591098983FB
S11309609A83AFEFBFEFAB87BC8704C021E030E0D0
S11309702B873C87CB88DC88ED88FE888201052C98
S1130980000C220B330BA101032C000C660B770B1C
S11309908F85988923DD4D855E85452B21F4A1142F
S11309A0B10491F571C26D857E856A157B0564F18C
S11309B0A12CB12C8D819E81280E391EA981BA816A
S11309C0AA0EBB1ECD84DE84CA14DB0434F4EB848B
S11309D0FC844E0C5F1CA818B908CB88DC88ED8811
S11309E0FE888201052C000C220B330BA101032C81
S11309F0000C660B770B8F859889F0DC29853A8586
S1130A0022153305B9F640C219861A864B855C85D2
S1130A10440E551E69857A85680D791D69877A8724
S1130A20A616B70654F48D819E81280E391EA9811D
S1130A30BA816A1B7B0B69877A87CB88DC88ED884F
S1130A40FE888201052C000C220B330BA101032C20
S1130A50000C660B770B8F859889C0DC64147504D1
S1130A60A9F612C24E2D50E0559547956A01052E00
S1130A70000CEE08FF082D853E8529AB3AABEB87C9
S1130A80FC8737FF0CC031952195310929AB3AAB6E
S1130A909A01DA010E94041A4B015C0102C046016A
S1130AA05701F7FF0CC0662777276E1B7F0B6B87F8
S1130AB07C879A01DA010E94041A4B015C01A9A9FE
S1130AC0BAA92A9EC0012B9E900D3A9E900D112426
S1130AD06B857C85469E9001479E300D569E300D59
S1130AE01124820F931F22273327281B390BC90196
S1130AF0330FAA0BBB0B89839A83AB83BC83A98571
S1130B00BA8569A97AA9A69F9001A79F300DB69FBF
S1130B10300D1124AB85BC856A9EC0016B9E900D7F
S1130B207A9E900D1124820F931F22273327281BAE
S1130B30390BB901330F880B990B6D837E838F8337
S1130B40988789859A8582159305ACF03D812E811D
S1130B506F81788589819A81AB81BC818D839E83E5
S1130B60AF83B88739832A836B837C83A1E0B0E0A9
S1130B70A98BBA8B04C02FEF3FEF298B3A8B6414F7
S1130B807504ACF039812A816B817C818D819E81D1
S1130B90AF81B88589839A83AB83BC833D832E83DD
S1130BA06F837887A1E0B0E0AD87BE8704C02FEFE4
S1130BB03FEF2D873E8766277727641B750B6BA352
S1130BC07CA389A99AA9AB85BC858A179B070CF4D9
S1130BD0B8C0AA0FBB1FA98FBA8F3D01681A790A42
S1130BE09301281B390B2B8F3C8F1F8A188E812F62
S1130BF08170B701A601480F511D611D711D49A7E0
S1130C005AA76BA77CA766277727CB0168197909B0
S1130C108A099B096DA77EA78FA798AB8BA19CA17E
S1130C2089879A87C9A8DAA82C9CD0012D9CB00D7D
S1130C303C9CB00D1124AF8FB8A39101032C000C80
S1130C40440B550B2DA33EA34FA358A749855A85A2
S1130C50CA01052E000CAA0BBB0BC9A4DAA4EBA491
S1130C60FCA48C159D05AE05BF050CF048C08A0197
S1130C70040D151DEB84FC84E09EC001E19E900DE3
S1130C80F09E900D11242F8D38A1820F931F092EF1
S1130C90000CAA0BBB0B49815A816B817C81480FE4
S1130CA0591F6A1F7B1FCDA4DEA4EFA4F8A84C151E
S1130CB05D056E057F05E4F02D813E814F815885E9
S1130CC0820F931FA41FB51F88169906AA06BB0698
S1130CD07CF0012E000C220B330BCB88DC88ED88D2
S1130CE0FE884DA15EA16FA178A58F85988976DBDA
S1130CF049855A854F5F5F4F49875A87A7CF8989AE
S1130D009A89820D931D77FE06C0698D7A8D660ED1
S1130D10771E1C0109C0AB8DBC8D6A0E7B1E1C01A5
S1130D20CD84DE844C0C5D1C2F89388D2F5F3F4FA2
S1130D302F8B388F49A95AA9421753070CF06ECF4D
S1130D40A3C069A97AA9660F771F6F8B788F3B01BF
S1130D508B859C85681A790AD301A81BB90BA98FC6
S1130D60BA8F2D853E85420E531E19861A86812F11
S1130D708170B701A601480F511D611D711D4F8F70
S1130D8058A369A37AA377FE05C06F89788D660E90
S1130D90771E08C0898D9A8D680E791EA989BA8933
S1130DA02A0E3B1EABA0BCA0C9A8DAA82C9C40010B
S1130DB02D9C900C3C9C900C11249201052C000C51
S1130DC0440B550B2B8F3C8F4D8F5E8FC5010B2C25
S1130DD0000CAA0BBB0B4F8D58A169A17AA18417F3
S1130DE09507A607B7070CF03FC09501240D351DE4
S1130DF06B857C85269FC001279F900D369F900DA3
S1130E001124880D991D092E000CAA0BBB0B4981D6
S1130E105A816B817C81480F591F6A1F7B1F77FDA4
S1130E201FC0CD80DE80EF80F8848C0D9D1DAE1D2B
S1130E30BF1D181619061A061B0694F0A501420DCB
S1130E40531D052E000C660B770BCB88DC88ED88D0
S1130E50FE880B8D1C8D2D8D3E8D8F859889BEDA75
S1130E602FEFA21AB20AB2CF49855A854F5F5F4F5E
S1130E7049875A876D857E85460E571E8B859C85CE
S1130E80841795070CF07FCF80E0E296E2E10C94A2
S1130E90381AA8E1B0E0EFE4F7E00C941F1A898750
S1130EA09A876F87788B498B5A8BFE2C25013601E4
S1130EB0DC01D296ED91FC91D397309731F0DA961C
S1130EC08D919C91DB9709953EC1229FA001239FA0
S1130ED0500D500D11244B835C83009FC001019F72
S1130EE0900D900D11248F839887880F991F8D8BF7
S1130EF09E8B440F551F4D875E871801409FD0017C
S1130F00419FB00D509FB00D1124AD83BE8320E0EE
S1130F1030E049895A896F85788989859A85A3DA69
S1130F202B813C81029FC001039F900D129F900D65
S1130F3011246F817885681B790B80E090E00E9412
S1130F40EB184B015C014B815C81BA01550F880B96
S1130F50990B0E94ED1820E030E040E85EE30E9427
S1130F6079199B01AC01C501B4010E9456180E9475
S1130F70BA186F8B788F8F819885AD89BE898A0F57
S1130F809B1F8B8B9C8B4C0119821A8294014B8979
S1130F905C89241B350B2B873C878D819E81281708
S1130FA03907A4F5A981BA811196A983BA832F8937
S1130FB0388D37FF05C0280D391D2F8B388F14C08D
S1130FC031E0231A31084D815E818D859E85481B51
S1130FD0590B4D835E83C401841B950BAF89B88D77
S1130FE0A80FB91FAF8BB88F63015201EF2C810199
S1130FF029813A8149895A896F85788989859A85B1
S113100032DA2D893E89820E931EC0CF49815A81DE
S1131010BA01550F880B990B0E94ED1820E030E0BF
S113102040E05FE30E9456184B015C01AF81B88534
S1131030BD01BB0F880B990B0E94ED18A50194010B
S11310400E947919A50194010E9479194B015C0150
S1131050C10101974B815C81489F9001499F300DEC
S1131060589F300D1124289FB001299F700D389F7F
S1131070700D1124072E000C880B990B0E94ED189B
S11310809B01AC01C501B4010E9456184B015C01DF
S11310908B819C81AF81B8858A9FB0018B9F700D35
S11310A09A9F700D1124072E000C880B990B0E9437
S11310B0ED189B01AC01C501B4010E9455180E94B2
S11310C0BA186F8378878D819E812D853E85821B1A
S11310D0930B8B809C80881A990A121413049CF534
S11310E031E0231A31084F815885141615061CF473
S11310F0480D591D14C089819A81019689839A8368
S1131100AB85BC852D893E89A20FB31FAB87BC87F5
S1131110CD01880D991D4F815885480F591F4F8364
S1131120588763015201EF2C810129813A81498951
S11311305A896F85788989859A8595D98D859E8503
S1131140880E991ECACF80E06896E2E10C94381AA2
S1131150A7E3B0E0EEEAF8E00C941F1A8D8F9E8F9F
S1131160F801EBA2309759F0A080B180E480F580BB
S1131170ED8AFE8AA281B381868197810EC0AD8DEE
S1131180BE8DED91FC91E080F180ED8AFE8A848130
S11311909581A0E0B0E0A12CB12C7A01550F000B91
S11311A0110BEF8AF88E098F1A8F7901330F000B18
S11311B0110BE982FA820B831C83E2ECF0E0349099
S11311C0E3ECF0E0E4916A877B874F88588C698C64
S11311D07A8C188A198A1A8A1B8A212C85010B2C6D
S11311E0000C220B330B08A719A72AA73BA72E2F05
S11311F00E2E000C330B440B550B2C873D874E876A
S11312005F87AD01BB0F660B770B4CA75DA76EA77D
S11312107FA78E0F911DE7FD9A957C01990F000B16
S1131220110BE8AAF9AA0AAB1BAB0D891E89012E82
S1131230000C220B330B0CAB1DAB2EAB3FABAA85C2
S1131240BB85ED91AA87BB87ED83E11107C088892F
S113125099890197E796E2E10C94381AE4ECF0E0FE
S11312609491E0ECF0E08491E4ECF0E02491FD81D1
S1131270F21738F0E5ECF0E02491FD812F1708F027
S11312805AC0312CBD81BA3021F0BD3009F442C0BE
S113129011C0E980FA800B811C812C853D854E8527
S11312A05F85E20EF31E041F151FE982FA820B8389
S11312B01C8334C0822D022C000C990BAA0BBB0B8F
S11312C0480E591E6A1E7B1E832D032C000C990B9D
S11312D0AA0BBB0B840D951DA61DB71D4CA95DA9BA
S11312E06EA97FA9481759076A077B07BCF45BA15D
S11312F05523A1F069817A818B819C81EC84FD84E2
S11313000E851F856E0D7F1D801F911F69837A8353
S11313108B839C834F88588C698C7A8C08891989B3
S11313202A893B890F5F1F4F2F4F3F4F088B198B23
S11313302A8B3B8B84CF1D81412F50E0491B5109DF
S1131340632D64039001659F300D1124280F311D16
S11313504901032E000CAA08BB08AD8DBE8DDC9696
S11313608C91882309F4B3C0232CE22C022C000CAA
S1131370FF08000B110BEF8EF8A209A31AA3D801E2
S1131380C701840D951DA61DB71D48A559A56AA5BD
S11313907BA584179507A607B7070CF473CF8D892F
S11313A09E89820D911D27FC9A95092E000CAA0B8B
S11313B0BB0B481659066A067B060CF063CF89817D
S11313C09A81AB81BC81EC84FD840E851F858E0DD2
S11313D09F1DA01FB11F4CA55DA56EA57FA58417F9
S11313E09507A607B7070CF44DCF69817A818B81E5
S11313F09C81E8A8F9A80AA91BA96E157F05800796
S113140091070CF03FCF890100541F4F0B8F1C8FA5
S1131410812C912C54012F8D38A149A15AA18216F7
S11314209306A406B5060CF02DCFEB8DFC8DF4913C
S1131430FC8B1E821F821886198685017401E40CB8
S1131440F51C061D171DECA2FDA20EA31FA30E8101
S11314501F81288539854C855D856E857F850417B8
S113146015072607370744F55C8950FF16C06096B8
S1131470CCACDDACEEACFFAC609769817A818B813A
S11314809C81060F171F281F391F4CA15DA16EA157
S11314907FA18D8D9E8D0E94EE017C8976957C8B3B
S11314A08E819F81A885B9850196A11DB11D8E836A
S11314B09F83A887B987CBCF9FEF891A990AA90A76
S11314C0B90AAB8DBC8D1196AB8FBC8FA4CF40E015
S11314D050E081E0BFEF8B1A9B0AAB0ABB0A83156D
S11314E064F4FA01E80DF91DE054FF4FE4914F5FF5
S11314F05F4FEE2311F08F5FF2CF22242394280E46
S113150034CFDC01D696ED91FC91D797309739F022
S1131510DA968D919C91DB97099580E0089588EF88
S113152008954F925F926F927F928F929F92AF92A3
S1131530BF92CF92DF92EF92FF920F931F93DC0141
S1131540892B09F493C016968D919C91179768176F
S113155079070CF48BC01A968D919C911B97681790
S113156079070CF083C018968D919C9119974817B0
S113157059070CF47BC01C968D919C911D974817BC
S113158059070CF073C0ED91FC911197C080D18084
S1131590E280F3804B01072E000CAA08BB088C14D0
S11315A09D04AE04BF040CF061C077FD5FC04480AD
S11315B05580668077804A01052E000CAA08BB0876
S11315C084149504A604B7040CF050C057FD4EC013
S11315D0560184AD8230D9F0833051F081111FC09F
S11315E0C2010197841B950B5201AB01BC0117C0CA
S11315F081E0C81AD108C601861B970BBC0191E093
S1131600491A5108C201841B950BAC0108C091E032
S1131610C91AD108C61AD70A5201BA01A601CD01C6
S11316208D5B9F4FFA01A3E0F595E795AA95E1F745
S1131630EA9DD001EB9DB00DFA9DB00D11246A0F07
S11316407B1FDC01A60FB71F477055278C91FA0149
S1131650E854FF4F012B022B032B21F0E491482F78
S11316604E2B03C04491409548234C931F910F91F6
S1131670FF90EF90DF90CF90BF90AF909F908F90AE
S11316807F906F905F904F900895A6E0B0E0EBE4F8
S1131690FBE00C941F1A8B839C83009709F4DFC032
S11316A0DC011A96ED91FC911B976E177F070CF0E5
S11316B0D6C01C968D919C911D97481759070CF024
S11316C0CEC03B01620E731E16968D919C911797A6
S11316D0681679060CF4C3C02A01400E511E1896F0
S11316E02D913C911997421653060CF4B8C045014C
S11316F0560149835A831B01AD83BE83EE2061F1F9
S11317007A01421753070CF47901281639060CF4B0
S11317101C01E615F7050CF43F01E414F5040CF084
S11317209EC0ED81FE8184859585E816F9060CF04E
S113173096C06101C614D7045CF495018401A70125
S1131740B6018D819E81EDDEFFEFCF1ADF0AF2CF65
S11317504FEFE41AF40AE1CF6B827C82E615F705B9
S113176014F4EB83FC836101281639060CF46C0134
S113177089819A818217930794F07601AB81BC81A9
S1131780EA16FB0664F49501840149815A81B70184
S11317908D819E81C6DEBFEFEB1AFB0AEFCFED8190
S11317A0FE818485958584159505A4F07201F1E088
S11317B0EF1AF1084B815C81C416D5065CF49501DF
S11317C08401A701B6018D819E81ABDE5FEFC51A4E
S11317D0D50AF0CFAD81BE811C968D919C911D9749
S11317E0841595050CF42C01ED81FE81808591858D
S11317F0E980FA80E816F9060CF47C01AD81BE811B
S113180016968D919C911797281639067CF06701DE
S1131810C414D5045CF495018401A601B1018D8141
S11318209E817FDEBFEFCB1ADB0AF2CFED81FE8112
S1131830828593858615970594F06301F1E0CF1AAC
S1131840D108E414F5045CF495018401A701B60100
S11318508D819E8166DE4FEFE41AF40AF2CF26965C
S1131860E2E10C94381AAF92BF92CF92DF92EF92DA
S11318700F931F93009781F05A016B01DC01ED91E6
S1131880FC910481158120813181EE24E39440E0B0
S113189050E060E070E0F9DE1F910F91EF90DF906F
S11318A0CF90BF90AF900895A6E0B0E0EAE5FCE0E9
S11318B00C941F1AFC01892B09F451C0460F571FC1
S11318C086819781681779070CF4BC01A285B385DA
S11318D05D016A177B070CF45B01481759070CF488
S11318E0AC01A983BA834A175B0714F449835A836A
S11318F080859185821793070CF4C90184849584AB
S1131900881599050CF44C0116012701EB83FC831F
S1131910802F90E06C01D594C7948C199D09880D93
S1131920991D8D839E8389819A81A816B906BCF47A
S113193034016C187D088D819E81681679065CF4EB
S113194092018101A301B5018B819C81EADD9FEFA6
S1131950691A790AF0CF8FEFA81AB80AE4CF26964D
S1131960E2E10C94381AA6E0B0E0E9EBFCE00C9458
S11319701F1AFC01892B09F451C0460F571F868199
S11319809781821793070CF4C90182849384881584
S113199099050CF44C0180859185681779070CF43E
S11319A0BC01248535855901621773070CF45B016A
S11319B0481759070CF4AC0129833A83421753079B
S11319C014F449835A8316012701EB83FC83802F87
S11319D090E06C01D594C7948C199D09880D991DCC
S11319E08D839E8389819A81A816B906BCF434013B
S11319F06C187D088D819E81681679065CF49201CD
S1131A008101A501B3018B819C818BDD9FEF691A54
S1131A10790AF0CF8FEFA81AB80AE4CF2696E2E14C
S1131A200C94381AA1E0B0E0E8E1FDE00C942D1A22
S1131A308C016983FC01FF9660E070E080819181F4
S1131A404CD6F801EF5BFF4F41E050E0BE016F5F01
S1131A507F4F808191810E94E3152196E4E00C94EC
S1131A60461A1F93CF93DF93009709F443C0EC0108
S1131A7060E4D8DFE881F98184819581A681B7810A
S1131A8024AD2D7F11F4808191818032910539F04C
S1131A908034910531F0409769F511E003C013E0FB
S1131AA001C017E061E2CE01BDDF60E0CE01BADF24
S1131AB06FE7CE01B7DF62E2CE01B4DF60E0CE01B2
S1131AC0B1DF612FCE01AEDFFE01FF9661E070E071
S1131AD08081918102D6BE016D5B7F4FFE01EF5B79
S1131AE0FF4F40E052E0808191810E94E315CE01D6
S1131AF00E94BA01DF91CF911F910895009711F0D0
S1131B006FEA90CF0895009711F06EEA8BCF089595
S1131B101F93CF93DF93009739F0162FEC0161E800
S1131B2081DF612FCE017EDFDF91CF911F91089578
S1131B30CF93DF93EC0160E070E08DAD9EADCDD529
S1131B4062E070E080E090E05ED561E070E08DAD31
S1131B509EADC3D564E670E080E090E054D56DE8B6
S1131B60CE0160DF64E1CE015DDF69EDCE015ADFB5
S1131B7061EFCE0157DF61E8CE0154DF6FE8CE019B
S1131B8051DF60EACE014EDF60ECCE014BDF6AED3F
S1131B90CE0148DF60E0CE0145DF60E2CE0142DFE6
S1131BA062E070E080E090E02ED5FE01ED5BFF4F37
S1131BB0CE018D5B9D4F1192E817F907E1F7CE0135
S1131BC050DF60E0CE01A4DFDF91CF910895A0E063
S1131BD0B0E0EDEEFDE00C94271AEC017B015A0114
S1131BE06901C801BE01635C7F4FAFD28E01015C05
S1131BF01F4FB801C601A9D26E0181E4C80ED11CE1
S1131C00B601C50102D3F60180819181892BC1F10E
S1131C10F80180819181892B99F1E882F9828EE71C
S1131C209DE08A8B9B8B83E89DE08C8B9D8B81E967
S1131C309AE08C8F9D8F85E49BE08A8F9B8F84E54F
S1131C409CE08CA39DA383EB9CE08EA39FA383E3E2
S1131C509CE088A799A781E39DE08EAB9FAB1E8291
S1131C601F8218861986F701808191818A879B8754
S1131C70848195818C879D87CAAFDBAFCE0158DF05
S1131C80CDB7DEB7EAE00C94401A0F931F938B0193
S1131C909C01BB27A32F922F812F602F782FC9017E
S1131CA01F910F910895A0E0B0E0E9E5FEE00C94E7
S1131CB0201AEAEDF2E28FEF80838183128213828D
S1131CC0C2EBD2E280E1982E988294E8A92EA982F0
S1131CD01A821B8226EB722E7C823CE9632E6D8273
S1131CE048E9542E5E821F821FE7188719871A87D6
S1131CF01B869C86AD861E861F8600EA088B098B90
S1131D000A8B1B8A1C8A1D8A1E8A1F8A988EA98E9A
S1131D101A8E1B8E50EFB52EBC8EBD8EBE8E1F8EBE
S1131D2069E3862E88A289A28AA21BA2C090DA2225
S1131D30D090DB22E090DC22F090DD22C701B601D6
S1131D40A4DF6CA37DA38EA39FA3CEE9D2E29882E5
S1131D50A9821A821B828AE98C8386ED8D831E8276
S1131D601F827AE4472E4886ECE23E2E39861A8694
S1131D701B868C868D868E861F86C701B60185DFFD
S1131D80688B798B8A8B9B8BCAE6D2E29882A98274
S1131D901A821B827C826D825E821F8285E588871F
S1131DA08DEA89871A861B861C871D871E871F86D6
S1131DB0988AA98A1A8A1B8A0C8B0D8B0E8B1F8A10
S1131DC0188E84E0898F1A8E1B8E1C8F1D8F1E8F98
S1131DD01F8E98A2A9A21AA21BA2BCA2BDA2BEA237
S1131DE01FA248A639A61AA61BA61CA61DA61EA697
S1131DF01FA6C701B60149DF68AB79AB8AAB9BABC1
S1131E00CEE3D2E29882A9821A821B827C826D82FE
S1131E105E821F82188719871A871B869C86AD8667
S1131E201E861F86088B098B0A8B1B8A1C8A1D8AB7
S1131E301E8A1F8A988EA98E1A8E1B8EBC8EBD8E0A
S1131E40BE8E1F8E88A289A28AA21BA2BCA2BDA29A
S1131E50BEA21FA2C701B60118DF68A779A78AA787
S1131E609BA7CAE2D2E2788269825A821B821C83CF
S1131E701D831E831F82088709870A871B861C8689
S1131E801D861E861F86C701B601FFDE688B798B0F
S1131E908A8B9B8BCDB7DEB7E1E10C94391A03D062
S1131EA080E090E00895A7E2B0E0E9E5FFE00C945B
S1131EB0271A04E110E020E030E040E050E060E068
S1131EC070E0CE01419643D304E620E030E040E0E8
S1131ED050E060E070E0CE01019639D364ED71E228
S1131EE0CE01819655D2CC24CA94DC2CE12CF12C61
S1131EF001E010E020E030E043E050E060E070E01A
S1131F008091E6229091E7220E94EE01AA24AA94ED
S1131F10BA2CC12CD12CEE24E39405E010E025E08A
S1131F2030E043E050E061E070E08091E62290917F
S1131F30E7220E94CA01E12C25E030E049E050E0AC
S1131F4061E070E08091E6229091E7220E94CA014C
S1131F50CC24CA94DC2CE12CF12C01E020E130E00B
S1131F6040E150E061E070E08091E6229091E72248
S1131F700E94190228E030E04AE050E062E170E09B
S1131F808091E6229091E7220E94A8021F921F925C
S1131F908FEF8F938F93A12CB12C6501EE24E394E2
S1131FA000E010E020E030E040E150E06BED71E251
S1131FB08091E6229091E722CBD8CC24CA94DC2CE1
S1131FC0E12CF12C01E028E030E047E150E060E250
S1131FD070E08091E6229091E7220E94C20200E024
S1131FE028E030E047E150E062E370E08091E622CF
S1131FF09091E7220E94C202AA24AA94BA2CC12C6E
S1132000D12CEE24E39404E010E028E030E047E132
S113201050E065E470E08091E6229091E7220E940E
S11320204907E12C08E010E024E030E047E150E00B
S113203063E570E08091E6229091E7220E944907CF
S1132040EE24E39409E110E02EE630E040E150E0B4
S11320506AE570E08091E6229091E7220E945B0499
S113206063E0E62E26E730E040E150E062E670E00F
S11320708091E6229091E7220E945B048091E622FF
S11320809091E7223EDA0F900F900F900F90F12C71
S11320908EED92E271D1CE0141967FD2CE010196AE
S11320A07CD28823A9F3BE01695D7F4F8EEF91E254
S11320B009D28FA1882321F1FF2069F00CE013E0FD
S11320C020E030E040E050E060E070E0CE010196B6
S11320D054D2F12C0DC004EB10E020E030E040E0DD
S11320E050E060E070E0CE01019647D2FF24F39403
S11320F060E08EEF91E2ABD1A12CB12C650114C04C
S113210004E110E020E030E040E050E060E070E006
S1132110CE01019632D261E08EEF91E298D1AA24E9
S1132120AA94BA2CC12CD12CEE24E39405E010E03F
S113213025E030E048E150E060E670E08091E6227E
S11321409091E7220E94CA01A3CFA0E0B0E0EBEA9D
S1132150F0E10C94291A6C018B0183E4E82E80E2EF
S1132160F82EF701C191D1917F01209721F08D853F
S11321709E85892B29F4F8011082118285EF10C005
S11321808881813071F7B601CE0101960E94C71B88
S1132190892B39F78F859889F8018083918380E0B2
S11321A0CDB7DEB7E8E00C94421AA0E0B0E0EBED66
S11321B0F0E10C94291A6C018B0183E4E82E80E28F
S11321C0F82EF701C191D1917F01209721F08D85DF
S11321D09E85892B29F4F8011082118285EF10C0A5
S11321E08881833071F7B601CE0101960E94C71B26
S11321F0892B39F78F859889F8018083918380E052
S1132200CDB7DEB7E8E00C94421AA0E0B0E0EBE012
S1132210F1E10C94291A6C018B0183E4E82E80E22D
S1132220F82EF701C191D1917F01209721F08D857E
S11322309E85892B29F4F8011082118285EF10C044
S11322408881843071F7B601CE0101960E94C71BC4
S1132250892B39F78F859889F8018083918380E0F1
S1132260CDB7DEB7E8E00C94421AA0E0B0E0EBE3AF
S1132270F1E10C94291A6C018B0183E4E82E80E2CD
S1132280F82EF701C191D1917F01209721F08D851E
S11322909E85892B29F4F8011082118285EF10C0E4
S11322A08881823071F7B601CE0101960E94C71B66
S11322B0892B39F78F859889F8018083918380E091
S11322C0CDB7DEB7E8E00C94421AA0E0B0E0EBE64C
S11322D0F1E10C94291A6C018AE0F60111928A95B5
S11322E0E9F703E410E2F801C191D1918F018D85E2
S11322F09E85892B81F483E492E09BD1EC010097C5
S113230099F104E012E22CE032E243E152E266E0A9
S113231070E25DDC29C08881823069F08430A1F0EC
S11323208130E1F488E190E084D17C010097A1F050
S1132330BE01D2D211C08BE090E07BD17C0100972A
S113234059F0BE019CD408C086E190E072D17C01B2
S1132350009711F0BE01FDD2EF86F88AF8E203344B
S11323601F0709F0C0CFC7CFF601C087D187CDB70B
S1132370DEB7E8E00C94421A089588EE92E2EFD5B5
S11323808EED92E2A2CF089588EE92E2C6C508953A
S1132390A8E0B0E0EEECF1E10C942B1A8C017B0187
S11323A086E0F80111928A95E9F7BE01695F7F4FD3
S11323B0C701CBDE811107C08F819885F801828324
S11323C0938381E029C0BE016B5F7F4FC701EDDEBF
S11323D0811107C08D819E81F8018283938383E0FC
S11323E01BC0BE016D5F7F4FC7010FDF811107C0A6
S11323F08B819C81F8018283938384E00DC0BE01AC
S11324006F5F7F4FC70131DF811108C089819A81D5
S1132410F8018283938382E0818304C0F8011182EE
S1132420128213822896E6E00C94441AFC018281FD
S11324309381009741F02181222329F0213029F44E
S113244070E04BC108958FEE089588EF0895A6E0DB
S1132450B0E0EDE2F2E10C942E1A162FBC01CE018D
S1132460019696DF612FCE010196E0DF2696E3E028
S11324700C94471AA4E0B0E0EFE3F2E1EDC7FC01ED
S1132480828193810097C1F0F180FF20A9F021E0BF
S1132490F21214C08B01BE016F5F7F4FA6D1498138
S11324A05A816B817C81F801452B462B472B11F017
S11324B0F08205C0108203C08FEE01C088EF24961D
S11324C0E5E0E3C7A6E0B0E0E7E6F2E1C6C78B01CA
S11324D0BC01CE0101965CDFB801CE010196CADFD2
S11324E02696E4E0D3C7AF92BF92CF92DF92EF92E9
S11324F0FF920F931F93FC0120910D2330910E2323
S113250040910F2350911023609111237091122355
S11325108091132390911423A080B180C280D38032
S1132520E480F58006811781BBD79F7720873187A8
S11325304287538764877587868797871F910F9192
S1132540FF90EF90DF90CF90BF90AF9008950F93DE
S11325501F93FC0180E1DF011D928A95E9F77F77E3
S11325600083118322833383448355836683778373
S1132570CF01B9DF1F910F9108950F931F93FC01B1
S11325807F77008311832283338344835583668357
S11325907783A9DF1F910F910895A0E0B0E0E2EDE9
S11325A0F2E150C7FC015084618472848384948472
S11325B0D585C685B785252D362D472D582D692DF2
S11325C07D2F8C2F9B2FA0E089D7C4F0A0900D23E2
S11325D0B0900E23C0900F23D0901023E0901123CD
S11325E0F090122300911323109114231F776DD7B9
S11325F009F020F4CF0177DF81E001C080E0CDB79E
S1132600DEB7EFE038C7CF93DF93DC01CB019C0149
S1132610AD0160E070E080E090E0C4D4DF91CF9140
S1132620089589EE92E219C0089589EE92E227C0D6
S11326300895BC0181E090E05DC70895009711F012
S11326400C942C1B0895009739F0FC018081918132
S1132650009711F00C942C1B0895CF93DF93EC0199
S113266084E0FE0111928A95E9F762E070E081E06E
S113267090E040D788839983DF91CF9108950F9399
S11326801F93CF93DF93009719F1EC01888199810F
S1132690892BF1F02A813B818881998121153105AB
S11326A0B1F021503048220F331FFC01E20FF31F19
S11326B0008111810115110521F0C801C4DFC80191
S11326C0BDDF8A819B8101978A839B83E3CFC4D733
S11326D0DF91CF911F910F910895CF93DF930097CE
S11326E009F439C0DC011196ED91FC911297C5856E
S11326F0D685EC85FD85DF0185E0B695A7958A959D
S1132700E1F7AA0FBB1FAC56BE4D0D90BC91A02D96
S11327108889882351F014968C911497E770682760
S1132720E623E8271496EC9310C08E85882321F0C5
S11327306170772781E06827E770FF27E45FFC4F2B
S1132740672B29F0E4911596EC9380E005C0E491A1
S11327501696EC93FACF8EEFDF91CF910895CF9335
S1132760DF93009709F43CC0DC011196ED91FC91D4
S11327701297C585D685EC85FD85DF0185E0B69584
S1132780A7958A95E1F7AA0FBB1FAC56BE4D0D90D5
S1132790BC91A02D8889882341F018968C9190E0F3
S11327A08E239F23877099271DC08E85E770FF278E
S11327B0882369F018968C91E45FFC4FE491E82338
S11327C031E020E009F030E0832F922F0BC01896FF
S11327D08C91E45FFC4FE491E8238E2F90E002C0DB
S11327E08FEF9FEFDF91CF910895CF93DF93009701
S11327F051F0EB01B4DFA0E0B0E088839983AA83B1
S1132800BB8380E001C08EEFDF91CF910895CF9319
S1132810DF93009709F45AC0DC011196ED91FC9105
S113282012970584F685E02D24853585D90145E088
S1132830B695A7954A95E1F7AA0FBB1FAC56BE4DB6
S11328400D90BC91A02D4089411142C027703327BF
S113285041E050E0022E02C0440F551F0A94E2F7F3
S1132860EC014E835F83CD014096613081F0F0F03E
S1132870623039F0633061F5EC01C20FD31F88E197
S113288004C0EC01C20FD31F80E1888304C0EC01B3
S1132890C20FD31F18820484F585E02DE770FF274B
S11328A0E45FFC4FE4911296EC930EC0EC01C20F6E
S11328B0D31F18820484F585E02DE770FF27E45FB9
S11328C0FC4FE4911196EC9380E003C08EEF01C0BD
S11328D08BEFDF91CF9108950F931F93CF93DF93E5
S11328E028E1DC011D922A95E9F7FB0120812130C2
S11328F059F5EC0169837A8305851685D8015096CC
S11329008C915097811109C01F966C91CE017FDF85
S1132910F80161897289CE01E0DED8011C968C91A0
S11329201C9787708D831C96ED91FC911D9785E013
S1132930F695E7958A95E1F7EE0FFF1FEC56FE4DED
S1132940808191818B839C83DF91CF911F910F9123
S11329500895A4E0B0E0EEEAF4E177C526E1DC01F5
S11329601D922A95E9F7FB012081243009F028C142
S11329707B018C016B01FFEFCF1ADF0A44E050E0CA
S11329806BE172E2C6010CD7892B21F085EFD801E7
S11329908C9316C18FEF9FEF8B839C8389839A83DB
S11329A06DE270E0C601E8D65C016EE270E0C6013B
S11329B0E3D66C01A114B10449F3892B39F3CE0198
S11329C003969F938F93A0E28A2EA2E29A2E9F925F
S11329D08F92BFEFAB1ABB0ABF92AF92EFD65C01E6
S11329E0CE0101969F938F939F928F92EFEFCE1A11
S11329F0DE0ADF92CF92E2D68A0D9B1DCDBFDEBFE9
S1132A00029709F0C3CF8B819C81892B09F0BECF3B
S1132A1089819A818430910508F0B8CFD801159640
S1132A201C92159716968C9316978091B8219091C5
S1132A30B92154968D939C9355971196ED92FC92DF
S1132A401297F70125853685D9015296ED91FC91AF
S1132A505397DF0185E0B695A7958A95E1F7AA0F0C
S1132A60BB1FAC56BE4D0D90BC91A02DE770FF2747
S1132A70E45FFC4FE4911596EC931597F901828974
S1132A809389FC01E770FF27E45FFC4FE491119602
S1132A90EC93D90158968C91B4E08B9FC00111241A
S1132AA0E82FEC70D90154964D915D916D917C9114
S1132AB057978091D0219091D121A091D221B091AA
S1132AC0D3216C017D01F694E794D794C794C4167E
S1132AD0D506E606F70608F446C06C017D01F2E06F
S1132AE0F694E794D794C794FA95D1F7C416D5060B
S1132AF0E606F706D0F16C017D01F3E0F694E79465
S1132B00D794C794FA95D1F7C416D506E606F70606
S1132B1070F16C017D01F4E0F694E794D794C794C6
S1132B20FA95D1F7C416D506E606F70610F16C013E
S1132B307D01F5E0F694E794D794C794FA95D1F71C
S1132B40C416D506E606F706B0F0F6E0B695A795E6
S1132B5097958795FA95D1F784179507A607B70730
S1132B6060F093E00BC090E809C090E007C091E8E2
S1132B7005C091E003C092E801C092E09E2BF901E8
S1132B80818D811190629065D8011596EC9115970D
S1132B90F0E0EE0FFF1FE854FE4D0190F081E02DB0
S1132BA0908315968C9181110BC080EB8093410624
S1132BB08093450688E18093560680E4809342061C
S1132BC02496ECE05BC4CF93DF93DC01892B21F4E2
S1132BD08EEF80B99FEF50C01196ED91FC91129742
S1132BE08585968513962C911397211116C0EC01B7
S1132BF0EA89FB89EF0125E0D695C7952A95E1F787
S1132C00CC0FDD1FCC56DE4D0990D881C02DE77066
S1132C10FF27E45FFC4FE491EE835496CD91DC9161
S1132C205597FB019B01240F351FE217F30731F081
S1132C3061916B836A8167FFFDCFF7CF13962C9167
S1132C40211119C0DC015296ED91FC915397DF01DB
S1132C5085E0B695A7958A95E1F7AA0FBB1FAC56F8
S1132C60BE4D0D90BC91A02DE770FF27E45FFC4F93
S1132C70E4911596EC93CA01DF91CF910895FF92E8
S1132C800F931F93CF93DF932BE0F22EFC012F2D94
S1132C9011922A95E9F7FB012081223009F0C9C07D
S1132CA08B01EC0145E050E063E272E2CF01019652
S1132CB077D5892B19F085EF8883BBC0F80186810D
S1132CC080538430C0F7FE011192FA94E9F78887A3
S1132CD009831A83F80105851685823031F1833022
S1132CE089F1813069F080914E068F7E80934E0683
S1132CF088E18093520684E08093420688E00CC009
S1132D0080914E06806180934E0688E1809356063A
S1132D1080E48093420680E88093410680934506D0
S1132D208091C0219091C12121C080916E068F7E37
S1132D3080936E0688E18093720684E08093620635
S1132D4088E00CC080916E06806180936E0688E1F5
S1132D508093760680E48093620680E8809361061F
S1132D60809365068091C4219091C5218D839E83B3
S1132D70F80180899189A289B3899C01AD0183E01E
S1132D80220F331F441F551F8A95D1F76091D0211C
S1132D907091D1218091D2219091D3210DD32150D2
S1132DA03109ED81FE812683ED81FE81832F8F70B1
S1132DB08783F8018489882341F0813041F082308F
S1132DC041F0843041F083E007C080E005C081E039
S1132DD003C082E001C087E0F8019689923011F4C3
S1132DE0806203C0913009F48063F80195899130C1
S1132DF009F48860ED81FE818483F80186859785D6
S1132E00892B11F084E101C084E0F8012485358523
S1132E10232B09F08860ED81FE818383ED81FE819F
S1132E2084E082838091A200816098ED94BF8093B6
S1132E30A200CDB7DEB7E5E028C31F920F920FB60C
S1132E400F9211248F939F93EF93FF938091ED2220
S1132E509091EE22892B29F41092FD221092FE22E9
S1132E601BC08091ED229091EE22E091FD22F09121
S1132E70FE22309719F080818093C0083196E09348
S1132E80FD22F093FE228091ED229091EE22019793
S1132E908093ED229093EE22FF91EF919F918F9179
S1132EA00F900FBE0F901F9018951F920F920FB6A0
S1132EB00F9211248F939F93EF93FF938091F122AC
S1132EC09091F222892B29F410920123109202236B
S1132ED01BC08091F1229091F222E0910123F091A4
S1132EE00223309719F080818093C0083196E093D3
S1132EF00123F09302238091F1229091F222019711
S1132F008093F1229093F222FF91EF919F918F9100
S1132F100F900FBE0F901F90189508958091500048
S1132F208260809350008091510081FFFCCF88ED36
S1132F3091E084BF9093400084BF809150008E7FC5
S1132F408093500080E098E4A8EEB1E08093D02113
S1132F509093D121A093D221B093D321089560916D
S1132F60D0217091D1218091D2219091D321D6CFBB
S1132F70089578948091A200846098ED94BF809322
S1132F80A200E0E0F4E089E090E082879387848700
S1132F90958781E0808393E09283838385E08093A7
S1132FA043000895A0E0B0E0E7EDF7E14EC2590117
S1132FB06A017B018C0120910D2330910E234091F5
S1132FC00F2350911023609111237091122380914B
S1132FD013239091142364D24901D42FC52FB62F03
S1132FE0A72FF82FE92FA0900D23B0900E23C090A7
S1132FF00F23D0901023E0901123F090122300911E
S113300013231091142394014D2F5C2F6B2F7A2FCF
S11330108F2F9E2F5AD238F7CDB7DEB7ECE02EC2F1
S11330201F920F920FB60F9211242F933F934F9339
S11330305F936F937F938F939F93AF9320910D230F
S113304030910E2340910F2350911023609111234E
S1133050709112238091132390911423AAE029D212
S113306020930D2330930E2340930F23509310236A
S1133070609311237093122380931323909314234A
S1133080AF919F918F917F916F915F914F913F91FC
S11330902F910F900FBE0F901F90189585E193E22A
S11330A068CF08951092000408955058BB27AA27AA
S11330B00ED0E5C0D6D030F0DBD020F031F49F3F05
S11330C011F41EF4CBC00EF4E095E7FBC1C0E92F68
S11330D0E7D080F3BA17620773078407950718F0DF
S11330E071F49EF5FFC00EF4E0950B2EBA2FA02DBF
S11330F00B01B90190010C01CA01A0011124FF27A1
S1133100591B99F0593F50F4503E68F11A16F0409B
S1133110A22F232F342F4427585FF3CF469537959A
S11331202795A795F0405395C9F77EF41F16BA0B5F
S1133130620B730B840BBAF09150A1F0FF0FBB1F0D
S1133140661F771F881FC2F70EC0BA0F621F731F56
S1133150841F48F4879577956795B795F7959E3FB3
S113316008F0B3CF9395880F08F09927EE0F979541
S11331708795089504D06894B111B5C0089598D086
S113318088F09F5790F0B92F9927B751A0F0D1F04C
S1133190660F771F881F991F1AF0BA95C9F712C0D6
S11331A0B13081F09FD0B1E008959CC0672F782F93
S11331B08827B85F39F0B93FCCF386957795679542
S11331C0B395D9F73EF490958095709561957F4FAE
S11331D08F4F9F4F0895E89409C097FB3EF4909554
S11331E08095709561957F4F8F4F9F4F9923A9F0DC
S11331F0F92F96E9BB279395F6958795779567956B
S1133200B795F111F8CFFAF4BB0F11F460FF1BC0AE
S11332106F5F7F4F8F4F9F4F16C0882311F096E941
S113322011C0772321F09EE8872F762F05C06623EF
S113323071F096E8862F70E060E02AF09A95660FA8
S1133240771F881FDAF7880F9695879597F9089561
S113325097F99F6780E870E060E008959FEF80EC45
S1133260089500240A9416161706180609060895E8
S113327000240A9412161306140605060895092E4E
S11332800394000C11F4882352F0BB0F40F4BF2BBD
S113329011F460FF04C06F5F7F4F8F4F9F4F0895FD
S11332A057FD9058440F551F59F05F3F71F04795F3
S11332B0880F97FB991F61F09F3F79F087950895D8
S11332C0121613061406551FF2CF4695F1DF08C0F7
S11332D0161617061806991FF1CF86957105610514
S11332E008940895E894BB2766277727CB0197F9BC
S11332F008950BD0C4CFB5DF28F0BADF18F09523BA
S113330009F0A6CFABCF1124EECFCADFA0F3959F6F
S1133310D1F3950F50E0551F629FF001729FBB27B8
S1133320F00DB11D639FAA27F00DB11DAA1F649F64
S11333306627B00DA11D661F829F2227B00DA11D17
S1133340621F739FB00DA11D621F839FA00D611D9D
S1133350221F749F3327A00D611D231F849F600DBE
S1133360211D822F762F6A2F11249F5750408AF0F7
S1133370E1F088234AF0EE0FFF1FBB1F661F771F83
S1133380881F91505040A9F79E3F510570F060CFBF
S1133390AACF5F3FECF3983EDCF38695779567956B
S11333A0B795F795E7959F5FC1F7FE2B880F911DA1
S11333B09695879597F90895A1E21A2EAA1BBB1B2F
S11333C0FD010DC0AA1FBB1FEE1FFF1FA217B307ED
S11333D0E407F50720F0A21BB30BE40BF50B661F03
S11333E0771F881F991F1A9469F7609570958095C7
S11333F090959B01AC01BD01CF010895EE0FFF1F15
S11334000590F491E02D099405D0332312F48A1B1E
S11334109B0B10C0A29FB001B39FC001A39F700D6E
S1133420811D1124911DB29F700D811D1124911DC8
S11334300895F0DFB7FF0895821B930B08952F9230
S11334403F924F925F926F927F928F929F92AF9230
S1133450BF92CF92DF92EF92FF920F931F93CF937D
S1133460DF93CDB7DEB7CA1BDB0BCDBFDEBF09943C
S11334702A88398848885F846E847D848C849B8400
S1133480AA84B984C884DF80EE80FD800C811B810E
S1133490AA81B981CE0FD11DCDBFDEBFED01089544
S11334A02A0D3B1D4C1D5D1D6E1D7F1D801F911F30
S11334B008950024A7FD00942A0F301D401D501DBF
S11334C0601D701D801D901D08952A153B054C0537
S11334D05D056E057F058007910708950024A7FD0B
S11334E000942A17300540055005600570058005D5
S11334F0900508950F931F93CF93DF93869F8001C8
S1133500879F100D969F100D1124C8010DD0EC015A
S1133510009721F0A80160E070E027D1CE01DF918F
S1133520CF911F910F9108950F931F93CF93DF9322
S11335308230910510F482E090E0E0911823F0913C
S1133540192320E030E0A0E0B0E0309719F1408189
S113355051810281138148175907C8F084179507D0
S113356069F4109731F012960C93129713961C93EA
S113357027C0009318231093192322C02115310565
S113358019F04217530718F49A01BD01EF01DF0146
S1133590F801DBCF21153105F9F0281B390B243054
S11335A0310580F48A819B816115710521F0FB014D
S11335B08283938304C08093182390931923FE017C
S11335C0329644C0FE01E20FF31F8193919322507F
S11335D03109288339833AC0209116233091172367
S11335E0232B41F4209102203091032020931623B1
S11335F030931723209100203091012021153105AB
S113360041F42DB73EB74091042050910520241B6E
S1133610350BE0911623F0911723E217F307A0F47A
S11336202E1B3F0B2817390778F0AC014E5F5F4F14
S11336302417350748F04E0F5F1F4093162350930D
S113364017238193919302C0E0E0F0E0CF01DF9172
S1133650CF911F910F910895CF93DF93009709F4B1
S113366081C0FC01329712821382A0911823B09179
S11336701923109781F420813181820F931F2091A7
S11336801623309117232817390751F5E093162391
S1133690F093172367C0ED0120E030E0CE17DF0779
S11336A040F44A815B819E0141155105F1F0EA0124
S11336B0F5CFC283D38340815181840F951FC817EE
S11336C0D90759F488819981840F951F02968083C4
S11336D091838A819B81828393832115310529F407
S11336E0E0931823F09319233DC0E901EA83FB8397
S11336F049915991C40FD51FEC17FD0761F48081DE
S11337009181840F951F0296E901888399838281B0
S113371093818A839B83E0E0F0E012968D919C91E3
S11337201397009719F0FD01DC01F7CF8D919C915F
S113373011979D012E5F3F4F820F931F20911623F7
S1133740309117232817390769F4309729F4109218
S113375018231092192302C012821382A0931623F5
S1133760B0931723DF91CF910895DC0101C06D93CD
S113377041505040E0F70895FC018191861721F0F3
S11337808823D9F7992708953197CF010895FB012C
S1133790DC018D91019080190110D9F3990B0895E2
S11337A0FB01DC014150504030F08D9101908019B3
S11337B019F40020B9F7881B990B0895AEE0B0E026
S11337C0E3EEFBE14CCE85E08C838B899C89898375
S11337D09A83AE01495E5F4F6D897E89CE01019661
S11337E090D12E96E2E054CE20FD09C0FC0123FDC9
S11337F005C022FF02C0738362835183408308950E
S113380044FD17C046FD17C0AB01BC01DA01FB0142
S1133810AA0FBB1FEE1FFF1F1094D1F74A0F5B1FA7
S11338206E1F7F1FCB01BA01660F771F881F991F78
S113383009C033E001C034E0660F771F881F991F69
S11338403150D1F7620F711D811D911D08950F93A1
S11338501F93CF93DF938C01C80167D2EC0197FDCE
S113386006C050D2892BC1F7B801CE019CD2CE013B
S1133870DF91CF911F910F9108958F929F92AF92F4
S1133880BF92EF92FF920F931F93CF93DF938C011C
S1133890D62F7A01B22E49D29C0133272B3231051F
S11338A031F02D32310559F48B2D8068B82ED1506A
S11338B011F480E061C0C80138D297FDFACFCB2D56
S11338C0CD7F2B2D2073F9F48033E9F4AA24AA9434
S11338D0AD0E09F43EC0C80128D297FD3AC09C0140
S11338E02F7D33272835310541F4C264D25089F144
S11338F0C8011BD297FF07C02CC0B6FE02C0C2602D
S113390001C0C261DA2D812C912C540120ED280FC5
S1133910283078F0C4FF03C0B80145D217C02A305C
S113392040F0C6FFF9CF2F7D3FEE320F3630A0F7BF
S113393027504C2FC501B40163DF4B015C01C26009
S1133940D15051F0C801F1D197FFE0CFC1FD04C0BF
S1133950B0CF812C912C5401C7FF08C0B094A0941F
S113396090948094811C911CA11CB11C2C2FB50136
S1133970A401C70139DF81E0DF91CF911F910F913D
S1133980FF90EF90BF90AF909F908F900895A0E22A
S1133990B0E0ECECFCE156CD5C01962E7A01F90125
S11339A08E010F5F1F4F680180E2D8011D928A9536
S11339B0E9F7D50113968C9080E090E0612C712C8E
S11339C030E061E070E083FC259183FE21918F015A
S11339D0522E211103C080E090E090C02E3511F4E6
S11339E0009751F1432F50E0481759073CF42D3507
S11339F059F12D3219F4772009F103C0772009F425
S1133A0068C0452D469546954695D601A40FB11D2F
S1133A10452D47708B0102C0000F111F4A95E2F734
S1133A20A8015C91452B4C93651459F0561410F47D
S1133A305394E7CF5A94E5CF31E004C077247394CC
S1133A4001C0712C0196BFCF772019F08E8180625E
S1133A508E83311103C08824839417C0F6019E011C
S1133A602F5D3F4F8081809581932E173F07D1F7BB
S1133A70F2CFE114F10429F0D7018C93F7013196C8
S1133A807F019A94812C9920E9F0C5014ED197FDCC
S1133A9017C0FC01FF2723E0F595E7952A95E1F788
S1133AA0EC0DFD1D208130E0AC014770552702C0AC
S1133AB0359527954A95E2F720FDDBCFB50173D103
S1133AC0811089CFE114F10411F0D7011C92C801CF
S1133AD015C0422F469546954695D601A40FB11DB3
S1133AE0422F47708B0102C0000F111F4A95E2F765
S1133AF0A8015C91452B4C93622EA4CFA096EFE0D5
S1133B00BACCA0E0B0E0E6E8FDE19CCC6C01EB01AE
S1133B105A01FC0116821782512CF601E380FE0142
S1133B20E3FC8591E3FE8191182FEF01882309F4CA
S1133B30E0C090E0E7D0892B19F0C60188DEEDCF14
S1133B40153241F4FE01E3FC1591E3FE1191EF01FE
S1133B50153271F4C601E9D097FDC9C0412F50E078
S1133B609C01332724173507C1F2B6011CD1C1C00B
S1133B701A3239F4E3FC1591E3FE1191EF0101E0EF
S1133B8001C000E0F12C20ED210F2A3078F402600E
S1133B906F2D70E080E090E040E232DEF62EFE0110
S1133BA0E3FC1591E3FE1191EF01EDCF01FF03C09A
S1133BB0F11003C09EC0FF24FA94183619F01C3685
S1133BC051F010C0FE01E3FC1591E3FE1191EF01E9
S1133BD0183641F408600460FE01E3FC1591E3FE2D
S1133BE01191EF01112309F484C0612F70E08CEA74
S1133BF090E090D0892B09F47CC000FD07C0F5014A
S1133C0080809180C50102965C0102C0812C912CB8
S1133C101E3649F4F6014681578160E070E0202F9A
S1133C20C401E2DD7ACF1336A1F401FD02C0FF2402
S1133C30F394C6017AD097FD5AC08114910429F0F7
S1133C40F4018083C40101964C01FA94F110F1CF80
S1133C504AC01B3551F49E01A4016F2DC60197DEA5
S1133C60EC01892B09F03FC039C0C601F0DD97FD96
S1133C703EC01F3649F128F4143621F1193639F1C2
S1133C8025C0133771F01537E9F020C08114910471
S1133C9029F0F4016082C40101964C01FA94FF20DA
S1133CA059F0C60142D03C0197FD06C02BD0892BA8
S1133CB069F3B601C30177D081149104A1F0F40132
S1133CC0108211C0006203C0006101C00064202F93
S1133CD0A4016F2DC601D1DD811105C0F6018381D8
S1133CE0807329F406C000FD18CF539416CF5520D5
S1133CF019F0852D90E002C08FEF9FEFCDB7DEB7AE
S1133D00EFE0B9CB911168C0803219F08950855029
S1133D10D0F70895FC010590061621F00020D9F78C
S1133D20C00108953197CF010895CF93DF93EC013B
S1133D302B8120FF33C026FF0AC02F7B2B838E816B
S1133D409F8101968E839F838A8190E029C022FF00
S1133D500FC0E881F9818081082E000C990B00972F
S1133D6019F420622B831AC03196E883F9830EC0BC
S1133D70EA85FB85099597FF09C02B81019611F00F
S1133D8080E201C080E1822B8B8308C02E813F81B9
S1133D902F5F3F4F2E833F83992702C08FEF9FEF02
S1133DA0DF91CF910895FB01238120FF12C026FDEE
S1133DB010C08F3F3FEF930761F082832F7D206413
S1133DC0238326813781215031092683378399271C
S1133DD008958FEF9FEF089599278827089511E09C
S1133DE0CEE8D1E003C0FE0109DB2196C139D10739
S1093DF0D1F7F894FFCFA7
S1133DF600001A23200080000000200000000000BC
S1133E0600000000000000000000000000000000A8
S1133E160000000000000000000000000000000098
S1133E260000000000000000000000000000000088
S1133E3600000370214C2128210421E020BC20939A
S1133E462068205720FFFF00696F5461626C654546
S1133E566E64000000000000047370692D302E307B
S1133E660000000000792000007370692D302E30A8
S1133E7600000000004500470046002102404B4C6C
S1133E8600000002756172742D330000000000000A
S1133E96A4200000756172742D3300000000000038
S1133EA60100010000C2010003000000016C63640C
S1133EB62D6364000000000000CD2000006C6364E4
S1133EC62D636400000000000020020000000000D2
S1133ED6016C63642D7273740000000000F120000D
S1133EE6006C63642D7273740000000000630000AC
S1133EF600000000016862746E2D310000000000AD
S1133F0600152100006862746E2D31000000000067
S1133F160062000101000000016862746E2D300029
S1133F260000000000392100006862746E2D300024
S1133F36000000000060000101000000016C6564DF
S1133F462D31000000000000005D2100006C656456
S1133F562D31000000000000006500010000000093
S1133F66016C65642D300000000000000081210012
S1133F76006C65642D300000000000000064000140
S1133F860000000000060000400660060000000075
S1133F960000000000000000000000000000000017
S1133FA6000000000000E007E00800000000000038
S1133FB6C0080000C0090000000000000000000066
S1133FC60048E801756172742D33004D6F72676F96
S1133FD674682043707053444B206578616D706C2F
S1133FE665206170706C69636174696F6E006C65DD
S1133FF6642D30006C63642D727374006C63642DDD
S11340066364007370692D302E30007370692D005F
S10D4016257500756172742D000019
S9030000FC
