S01900004578616D706C65586D6567615F465047412E73726563D0
S1130000A4C100000C944421C8C10000C6C1000072
S1130010C4C10000C2C10000C0C10000BEC10000D4
S1130020BCC10000BAC100000C94B220B6C10000EB
S1130030B4C10000B2C10000B0C10000AEC10000F4
S1130040ACC10000AAC10000A8C10000A6C1000004
S1130050A4C10000A2C10000A0C100009EC1000014
S11300609CC100009AC1000098C1000096C1000024
S113007094C1000092C1000090C100008EC1000034
S11300808CC100008AC1000088C1000086C1000044
S113009084C1000082C1000080C100007EC1000054
S11300A07CC100007AC1000078C10000692C702C6A
S11300B0942CAE2CD52CDB2CE62C3E2DED2CF72CE1
S11300C0FE2C052D0B2D112D172D1D2D232D2A2D25
S11300D0302D352D6364696E6F70737578585B00CD
S11300E0010204081020408001020408102040800E
S11300F00600060820800000000000005F000000E9
S11301000000070007000000147F147F1400242A55
S11301107F2A1200231308646200364955225000D6
S11301200503000000001C224100000041221C00C5
S11301300000082A1C2A080008083E08080050305D
S11301400000000008080800000030300000000033
S11301502010080402003E5149453E00427F400001
S113016000004261514946002141454B31001814B9
S1130170127F10002745454539003C4A4949300063
S113018001710905030036494949360006494929E0
S11301901E0036000000000056360000000008145F
S11301A0224100001414140000004122140800002D
S11301B0020151090600324979413E007E11117E47
S11301C000007F49493600003E41412200007F4142
S11301D0221C00007F49494100007F0909010000F9
S11301E03E41513200007F08087F0000417F4100FA
S11301F000002040413F01007F08142241007F405D
S1130200400000007F0204027F007F0408107F008A
S11302103E41413E00007F09090600003E41512154
S11302205E007F1929460000464949310000017FDC
S1130230010000003F40403F00001F2040201F00FD
S11302407F2018207F0063140814630003047804DB
S113025003006151494543007F414100000002040D
S11302600810200041417F00000004020102040044
S11302704040400000000102040000002054547873
S113028000007F48443800003844440000003844EB
S1130290487F0000385454180000087E090100000B
S11302A00814543C00007F0804780000447D40009A
S11302B000002040443D00007F1028440000417F9E
S11302C0400000007C04180478007C0804780000D6
S11302D03844443800007C14140800000814187CC6
S11302E000007C0804080000485454200000043F27
S11302F0444000003C40207C00001C2040201C00A6
S11303003C4030403C004428102844000C50503CF1
S113031000004464544C44000836410000007F004F
S113032000000000413608000000082A1C080000F4
S1130330081C2A0800001436773614003C15842162
S1130340152BE22D88211D2BE62D11241FBECFEF86
S1130350CDBFDFE2DEBF17E2A0E0B0E2E0E7F0E706
S113036002C005900D92A83CB107D9F728E2A8EC89
S1130370B7E201C01D92A83BB207E1F711E0C2EA5F
S1130380D1E004C02197FE010E948730CE39D10705
S1130390C9F70E948C210C942C3832CEDC01529681
S11303A0ED91FC915397309739F0DA968D919C91A9
S11303B0DB97099580E0089588EF0895AF92BF9286
S11303C0CF92DF92EF920F931F93DC015A96ED9137
S11303D0FC915B97309769F02115310551F00115B7
S11303E0110539F0DA968D919C91DB97099580E09F
S11303F001C088EF1F910F91EF90DF90CF90BF90D5
S1130400AF9008954F925F926F927F92CF92DF9256
S1130410EF92FF920F931F93DC01280139015C9640
S1130420ED91FC915D97309761F097018601CB01C6
S1130430BA01A201DA968D919C91DB97099580E02F
S113044001C088EF1F910F91FF90EF90DF90CF9044
S11304507F906F905F904F900895CF92DF92EF92CC
S1130460FF920F93DC019496ED91FC919597309750
S113047039F0DA968D919C91DB97099580E001C063
S113048088EF0F91FF90EF90DF90CF900895AAE04E
S1130490B0E0EDE4F2E00C94A83089879A87A98251
S11304A0BA82CB82DC825B01A20EB31E4B01821A9C
S11304B0930A9A01200F311F1A01201A310AEE20E3
S11304C0A9F0A818B908C980DA80EB80FC8001E0A3
S11304D0A501B401C2DFC980DA80EB80FC80910100
S11304E0A501B40189859A85B8DF42C02901330F7B
S11304F066087708C501BB0CAA0BBB0B8D839E83D2
S1130500AF83B887C980DA80EB80FC8093018201D5
S1130510AC01BD0189859A8575DF092C000CAA08F8
S1130520BB08C980DA80EB80FC8093018201B501AD
S1130530A40189859A8566DF2101330C6608770852
S1130540C980DA80EB80FC80930182014D815E8159
S11305506F81788589859A8555DFC980DA80EB803B
S1130560FC8093018201B501A40189859A854ADF43
S11305702A96E2E10C94C130CF92DF92EF92FF927F
S11305800F93DC019696ED91FC919797309739F093
S1130590DA968D919C91DB97099580E001C088EFF4
S11305A00F91FF90EF90DF90CF900895DC01989623
S11305B0ED91FC919997309739F0DA968D919C9151
S11305C0DB97099580E0089588EF0895A5E3B0E0EE
S11305D0ECEEF2E00C94A8308CAB9DAB6F8F78A35B
S11305E04D8B5E8B09A726013701DC019E96ED91A8
S11305F0FC919F97309731F0DA968D919C91DB971F
S1130600099578C1190181E090E09C012219330910
S11306102F8B388F19821A821B821C821D8E1E8E8C
S113062041E050E049A35AA31BA21CA265E070E07C
S11306306DA37EA38F8D98A1092E000CAA0BBB0B72
S11306408AA79BA7ACA7BDA72D893E89032E000CC2
S1130650440B550B2EA73FA748AB59AB49815A8190
S11306604AAB5BABAF8CB8A0A41AB50A8F8D98A126
S1130670820D931D898F9A8FAF8DB8A1A219B309EA
S1130680AD87BE872D893E89240F351F2D833E8378
S11306906D897E89641B750B69877A878D889E882E
S11306A0820C931CAD89BE89A219B309AFA3B8A764
S11306B0B9A5BB2309F43DC02BA13CA128153905DC
S11306C091F07301620101E094014D8D5E8DB501DD
S11306D08CA99DA9C2DE2FA138A54D8D5E8DB501D3
S11306E08CA99DA9BADE4DA15EA16D817E814617BC
S11306F0570709F4C3C0A98CBA8C8D859E85A81AA6
S1130700B90A7301620101E09B01A501BC018CA936
S11307109DA9A3DE29853A85A5016D857E858CA9D1
S11307209DA99BDE8BA29CA2AD81BE81ADA3BEA37D
S1130730A7C09401990C440B550B298B3A8B4B8B16
S11307405C8B7301620189019A0149815A816B8131
S11307507C818AA59BA5ACA5BDA5480F591F6A1F1E
S11307607B1F4D835E836F8378878CA99DA94ADEA6
S1130770298D3A8D032E000C440B550B298F3A8F8B
S11307804B8F5C8F89809A80AB80BC804EA55FA51F
S113079068A979A9840E951EA61EB71E9501840129
S11307A0498D5A8D6B8D7C8D8CA99DA92BDE098971
S11307B01A892B893C898AA59BA5ACA5BDA549812D
S11307C05A816B817C81841B950BA60BB70B89879F
S11307D09A87AB87BC87AC01BD018CA99DA912DEA9
S11307E06D857E85072E000C880B990B6D877E879F
S11307F08F87988B95018401AB01BC018CA99DA9BD
S113080001DE8EA59FA5A8A9B9A929813A814B81AA
S11308105C81821B930BA40BB50B898B9A8BAB8BDE
S1130820BC8B8C019D01498D5A8D6B8D7C8D8CA95F
S11308309DA9E8DD4FA158A54A01550FAA08BB0898
S1130840950184014D815E816F8178858CA99DA974
S1130850D9DD9501840149855A856B857C858CA9F0
S11308609DA9D0DD09891A892B893C894D855E852E
S11308706F8578898CA99DA9C5DD02C08BA29CA235
S11308806F89788D29A13AA177FF08C08D8D9E8D3F
S11308900396680F791F6F8B788F11C08AA99BA963
S11308A082199309880F991F0596AF89B88DA80FEF
S11308B0B91FAF8BB88FA101415051091A0169A129
S11308C07AA16F5F7F4F69A37AA38D8D9E8D029667
S11308D08D8F9E8F49815A816B817C814F5F5F4FE1
S11308E06F4F7F4F49835A836B837C832216330671
S11308F00CF0B4CE80E0E596E2E10C94C130A2E3C2
S1130900B0E0E5E8F4E00C94A8308F87988B1B01E5
S11309102A0129873A8738011E2DAB8ABC8ACD8AE1
S1130920DE8ADC01D096ED91FC91D197309739F0B5
S11309308301DA968D919C91DB970995C9C2C9848C
S1130940DA84C61AD70ACD86DE86F301E41BF50BDA
S1130950113009F0ABC05F014601880C991C7F017E
S1130960EE0CFF1CE982FA829601D7FE0DC0319588
S1130970219531092D873E879194819491084FEFF9
S11309805FEF4D835E8304C061E070E06D837E831E
S1130990F7FF10C0AA24BB24AE1ABF0A89819A812A
S11309A091958195910989839A83AFEFBFEFAB87C6
S11309B0BC8704C021E030E02B873C87CB88DC88EF
S11309C0ED88FE888201052C000C220B330BA1015B
S11309D0032C000C660B770B8F85988913DD4D85EE
S11309E05E85452B21F4A114B10491F571C26D8586
S11309F07E856A157B0564F1A12CB12C8D819E81C5
S1130A00280E391EA981BA81AA0EBB1ECD84DE84AC
S1130A10CA14DB0434F4EB84FC844E0C5F1CA81869
S1130A20B908CB88DC88ED88FE888201052C000C8F
S1130A30220B330BA101032C000C660B770B8F8563
S1130A409889E0DC29853A8522153305B9F640C238
S1130A5019861A864B855C85440E551E69857A85F0
S1130A60680D791D69877A87A616B70654F48D81B7
S1130A709E81280E391EA981BA816A1B7B0B698766
S1130A807A87CB88DC88ED88FE888201052C000CEF
S1130A90220B330BA101032C000C660B770B8F8503
S1130AA09889B0DC64147504A9F612C24E2D50E086
S1130AB0559547956A01052E000CEE08FF082D8513
S1130AC03E8529AB3AABEB87FC8737FF0CC03195E9
S1130AD02195310929AB3AAB9A01DA010E948D3094
S1130AE04B015C0102C046015701F7FF0CC06627A9
S1130AF077276E1B7F0B6B877C879A01DA010E9434
S1130B008D304B015C01A9A9BAA92A9EC0012B9E74
S1130B10900D3A9E900D11246B857C85469E900124
S1130B20479E300D569E300D1124820F931F2227AD
S1130B303327281B390BC901330FAA0BBB0B89833D
S1130B409A83AB83BC83A985BA8569A97AA9A69F30
S1130B509001A79F300DB69F300D1124AB85BC8545
S1130B606A9EC0016B9E900D7A9E900D1124820F97
S1130B70931F22273327281B390BB901330F880B06
S1130B80990B6D837E838F83988789859A858215D7
S1130B909305ACF03D812E816F81788589819A819E
S1130BA0AB81BC818D839E83AF83B88739832A83CD
S1130BB06B837C83A1E0B0E0A98BBA8B04C02FEFD8
S1130BC03FEF298B3A8B64147504ACF039812A8188
S1130BD06B817C818D819E81AF81B88589839A8365
S1130BE0AB83BC833D832E836F837887A1E0B0E021
S1130BF0AD87BE8704C02FEF3FEF2D873E87662762
S1130C007727641B750B6BA37CA389A99AA9AB8571
S1130C10BC858A179B070CF4B8C0AA0FBB1FA98F09
S1130C20BA8F3D01681A790A9301281B390B2B8F5F
S1130C303C8F1F8A188E812F8170B701A601480F3F
S1130C40511D611D711D49A75AA76BA77CA7662773
S1130C507727CB01681979098A099B096DA77EA7B3
S1130C608FA798AB8BA19CA189879A87C9A8DAA87A
S1130C702C9CD0012D9CB00D3C9CB00D1124AF8F49
S1130C80B8A39101032C000C440B550B2DA33EA3D8
S1130C904FA358A749855A85CA01052E000CAA0BF3
S1130CA0BB0BC9A4DAA4EBA4FCA48C159D05AE056A
S1130CB0BF050CF048C08A01040D151DEB84FC84AB
S1130CC0E09EC001E19E900DF09E900D11242F8DA9
S1130CD038A1820F931F092E000CAA0BBB0B49816C
S1130CE05A816B817C81480F591F6A1F7B1FCDA4D9
S1130CF0DEA4EFA4F8A84C155D056E057F05E4F0AD
S1130D002D813E814F815885820F931FA41FB51FEB
S1130D1088169906AA06BB067CF0012E000C220B4D
S1130D20330BCB88DC88ED88FE884DA15EA16FA1D2
S1130D3078A58F85988966DB49855A854F5F5F4F13
S1130D4049875A87A7CF89899A89820D931D77FE8F
S1130D5006C0698D7A8D660E771E1C0109C0AB8DA5
S1130D60BC8D6A0E7B1E1C01CD84DE844C0C5D1C84
S1130D702F89388D2F5F3F4F2F8B388F49A95AA960
S1130D80421753070CF06ECFA3C069A97AA9660F66
S1130D90771F6F8B788F3B018B859C85681A790A46
S1130DA0D301A81BB90BA98FBA8F2D853E85420E9E
S1130DB0531E19861A86812F8170B701A601480F28
S1130DC0511D611D711D4F8F58A369A37AA377FE2E
S1130DD005C06F89788D660E771E08C0898D9A8D3F
S1130DE0680E791EA989BA892A0E3B1EABA0BCA045
S1130DF0C9A8DAA82C9C40012D9C900C3C9C900C1A
S1130E0011249201052C000C440B550B2B8F3C8FA5
S1130E104D8F5E8FC5010B2C000CAA0BBB0B4F8DA5
S1130E2058A169A17AA184179507A607B7070CF002
S1130E303FC09501240D351D6B857C85269FC0011F
S1130E40279F900D369F900D1124880D991D092E12
S1130E50000CAA0BBB0B49815A816B817C81480F22
S1130E60591F6A1F7B1F77FD1FC0CD80DE80EF8076
S1130E70F8848C0D9D1DAE1DBF1D181619061A068B
S1130E801B0694F0A501420D531D052E000C660BA4
S1130E90770BCB88DC88ED88FE880B8D1C8D2D8D1F
S1130EA03E8D8F859889AEDA2FEFA21AB20AB2CF9F
S1130EB049855A854F5F5F4F49875A876D857E857F
S1130EC0460E571E8B859C85841795070CF07FCFA3
S1130ED080E0E296E2E10C94C130A8E1B0E0E3E7FF
S1130EE0F7E00C94A83089879A876F87788B498BB1
S1130EF05A8BFE2C25013601DC01D296ED91FC9132
S1130F00D397309731F0DA968D919C91DB970995C0
S1130F103EC1229FA001239F500D500D11244B83ED
S1130F205C83009FC001019F900D900D11248F835D
S1130F309887880F991F8D8B9E8B440F551F4D8763
S1130F405E871801409FD001419FB00D509FB00DA6
S1130F501124AD83BE8320E030E049895A896F852E
S1130F60788989859A8593DA2B813C81029FC00117
S1130F70039F900D129F900D11246F817885681B3B
S1130F80790B80E090E00E94742F4B015C014B814F
S1130F905C81BA01550F880B990B0E94762F20E0D3
S1130FA030E040E85EE30E9402309B01AC01C501E1
S1130FB0B4010E94772E0E94432F6F8B788F8F810C
S1130FC09885AD89BE898A0F9B1F8B8B9C8B4C01A6
S1130FD019821A8294014B895C89241B350B2B8757
S1130FE03C878D819E8128173907A4F5A981BA8190
S1130FF01196A983BA832F89388D37FF05C0280D30
S1131000391D2F8B388F14C031E0231A31084D81DC
S11310105E818D859E85481B590B4D835E83C4017B
S1131020841B950BAF89B88DA80FB91FAF8BB88FF0
S113103063015201EF2C810129813A8149895A893E
S11310406F85788989859A8522DA2D893E89820E71
S1131050931EC0CF49815A81BA01550F880B990B51
S11310600E94762F20E030E040E05FE30E94772E7C
S11310704B015C01AF81B885BD01BB0F880B990B97
S11310800E94762FA50194010E940230A5019401CB
S11310900E9402304B015C01C10101974B815C81CC
S11310A0489F9001499F300D589F300D1124289F6F
S11310B0B001299F700D389F700D1124072E000C6C
S11310C0880B990B0E94762F9B01AC01C501B401DA
S11310D00E94772E4B015C018B819C81AF81B88586
S11310E08A9FB0018B9F700D9A9F700D1124072E5B
S11310F0000C880B990B0E94762F9B01AC01C50153
S1131100B4010E94762E0E94432F6F8378878D81CD
S11311109E812D853E85821B930B8B809C80881A33
S1131120990A121413049CF531E0231A31084F81F3
S11311305885141615061CF4480D591D14C08981D0
S11311409A81019689839A83AB85BC852D893E89D2
S1131150A20FB31FAB87BC87CD01880D991D4F81AA
S11311605885480F591F4F83588763015201EF2C4C
S1131170810129813A8149895A896F8578898985CC
S11311809A8585D98D859E85880E991ECACF80E063
S11311906896E2E10C94C130A7E3B0E0E2EDF8E038
S11311A00C94A8308D8F9E8FF801EBA2309759F0E4
S11311B0A080B180E480F580ED8AFE8AA281B381AB
S11311C0868197810EC0AD8DBE8DED91FC91E0803E
S11311D0F180ED8AFE8A84819581A0E0B0E0A12CA3
S11311E0B12C7A01550F000B110BEF8AF88E098F81
S11311F01A8F7901330F000B110BE982FA820B83EA
S11312001C83E2EFF0E03490E3EFF0E0E4916A87CE
S11312107B874F88588C698C7A8C188A198A1A8A29
S11312201B8A212C85010B2C000C220B330B08A7E5
S113123019A72AA73BA72E2F0E2E000C330B440B05
S1131240550B2C873D874E875F87AD01BB0F660B1F
S1131250770B4CA75DA76EA77FA78E0F911DE7FDA7
S11312609A957C01990F000B110BE8AAF9AA0AAB15
S11312701BAB0D891E89012E000C220B330B0CAB0A
S11312801DAB2EAB3FABAA85BB85ED91AA87BB876F
S1131290ED83E11107C0888999890197E796E2E116
S11312A00C94C130E4EFF0E09491E0EFF0E084912D
S11312B0E4EFF0E02491FD81F21738F0E5EFF0E07F
S11312C02491FD812F1708F05AC0312CBD81BA300A
S11312D021F0BD3009F442C011C0E980FA800B81CD
S11312E01C812C853D854E855F85E20EF31E041F0F
S11312F0151FE982FA820B831C8334C0822D022CD1
S1131300000C990BAA0BBB0B480E591E6A1E7B1EC0
S1131310832D032C000C990BAA0BBB0B840D951D7C
S1131320A61DB71D4CA95DA96EA97FA94817590729
S11313306A077B07BCF45BA15523A1F069817A811C
S11313408B819C81EC84FD840E851F856E0D7F1D31
S1131350801F911F69837A838B839C834F88588C69
S1131360698C7A8C088919892A893B890F5F1F4FF8
S11313702F4F3F4F088B198B2A8B3B8B84CF1D81BA
S1131380412F50E0491B5109632D64039001659F6F
S1131390300D1124280F311D4901032E000CAA0819
S11313A0BB08AD8DBE8DDC968C91882309F4B3C047
S11313B0232CE22C022C000CFF08000B110BEF8EE7
S11313C0F8A209A31AA3D801C701840D951DA61D6F
S11313D0B71D48A559A56AA57BA584179507A60737
S11313E0B7070CF473CF8D899E89820D911D27FC5C
S11313F09A95092E000CAA0BBB0B481659066A06CF
S11314007B060CF063CF89819A81AB81BC81EC842B
S1131410FD840E851F858E0D9F1DA01FB11F4CA539
S11314205DA56EA57FA584179507A607B7070CF4DD
S11314304DCF69817A818B819C81E8A8F9A80AA99A
S11314401BA96E157F05800791070CF03FCF89011A
S113145000511F4F0B8F1C8F812C912C54012F8D09
S113146038A149A15AA182169306A406B5060CF028
S11314702DCFEB8DFC8DF491FC8B1E821F82188680
S1131480198685017401E40CF51C061D171DECA2D8
S1131490FDA20EA31FA30E811F81288539854C85CB
S11314A05D856E857F85041715072607370744F584
S11314B05C8950FF16C06096CCACDDACEEACFFACE2
S11314C0609769817A818B819C81060F171F281F81
S11314D0391F4CA15DA16EA17FA18D8D9E8D0E94AF
S11314E002027C8976957C8B8E819F81A885B98543
S11314F00196A11DB11D8E839F83A887B987CBCF89
S11315009FEF891A990AA90AB90AAB8DBC8D119665
S1131510AB8FBC8FA4CF40E050E081E0BFEF8B1ACB
S11315209B0AAB0ABB0A831564F4FA01E80DF91DA2
S1131530E051FF4FE4914F5F5F4FEE2311F08F5F57
S1131540F2CF22242394280E34CFDC01D696ED91D9
S1131550FC91D797309739F0DA968D919C91DB976F
S1131560099580E0089588EF0895A0E0B0E0EBEBE2
S1131570FAE00C94AF30009739F17901942E5B01B5
S11315808C0169018FEFC81AD80AC6010E941D3167
S1131590EC010097D9F0FC019192CF01A701B501AC
S11315A00E943E32A601BE01C8010E946E2B8C151A
S11315B09D0529F0CE010E94B5318FEF08C0CE0100
S11315C00E94B53180E003C08EEF01C08DEFCDB72E
S11315D0DEB7EBE00C94C830A3E1B0E0E2EFFAE050
S11315E00C94B8304B8B009711F48EEF24C042E07A
S11315F050E04F87588BAE014F5F5F4F498B5A8B3A
S11316004E5E5F4F4B835C8341E050E04D835E83CD
S1131610FC014481558149835A836A877B872C87DF
S11316203D8748875987AE01415F5F4F61E00E9463
S1131630492C8111DACF6396E2E00C94D130A5E015
S1131640B0E0E5E2FBE00C94B5300097C1F1F62E72
S11316508C01FC01808190E0845A9F4F092E000C7C
S1131660AA0BBB0B89839A83AB83BC83AE014F5F08
S11316705F4F64E0828193810E94492C1D8221E0A6
S113168030E040E1BE016B5F7F4FF80182819381BE
S1131690A3DF811115C0F4E0FF9EB00111246C702A
S11316A08D81837F682B6D8321E030E040E1BE01B2
S11316B06B5F7F4FF8018281938157DF01C08EEF0A
S11316C02596E5E00C94CE30A5E0B0E0EAE6FBE038
S11316D00C94B5300097B1F1F62E8C01FC01808199
S11316E090E0845A9F4F092E000CAA0BBB0B8983F0
S11316F09A83AB83BC83AE014F5F5F4F64E082810A
S113170093810E94492C1D8221E030E040E1BE011A
S11317106B5F7F4FF801828193815EDF811113C07B
S11317208D818C7F6F2D6370F82EF62AFD8221E067
S113173030E040E1BE016B5F7F4FF801828193810D
S113174014DF01C08EEF2596E5E00C94CE30A5E0C1
S1131750B0E0EDEAFBE00C94B530009799F1F62E79
S11317608C01FC01808190E0845A9F4F092E000C6B
S1131770AA0BBB0B89839A83AB83BC83AE014F5FF7
S11317805F4F64E0828193810E94492C1D8221E095
S113179030E040E2BE016B5F7F4FF80182819381AC
S11317A01BDF811110C08D81F0FA87F98D8321E050
S11317B030E040E2BE016B5F7F4FF801828193818C
S11317C0D4DE01C08EEF2596E5E00C94CE30A5E082
S11317D0B0E0EDEEFBE00C94B5300097C1F1F62ECD
S11317E08C01FC01808190E0845A9F4F092E000CEB
S11317F0AA0BBB0B89839A83AB83BC83AE014F5F77
S11318005F4F64E0828193810E94492C1D8221E014
S113181030E040E2BE016B5F7F4FF801828193812B
S1131820DBDE811115C0F0E1FF9EB0011124607769
S11318308D818F78682B6D8321E030E040E2BE011A
S11318406B5F7F4FF801828193818FDE01C08EEF41
S11318502596E5E00C94CE30A5E0B0E0E2E3FCE0B0
S11318600C94B530009799F1F62E8C01FC0180811F
S113187090E0845A9F4F092E000CAA0BBB0B89835E
S11318809A83AB83BC83AE014F5F5F4F64E0828178
S113189093810E94492C1D8221E030E040E2BE0188
S11318A06B5F7F4FF8018281938196DE811110C0B6
S11318B08D81F0FA82F98D8321E030E040E2BE01AF
S11318C06B5F7F4FF801828193814FDE01C08EEF01
S11318D02596E5E00C94CE30AF92BF92DF92EF9262
S11318E0FF920F931F93CF93DF9300D000D0CDB717
S11318F0DEB78C015B01D42E86E090E00E94EA2DD5
S11319007C01B5010E94222BF801E282F382D0828D
S11319104D2D50E0445A5F4F052E000C660B770B9B
S113192049835A836B837C83AE014F5F5F4F64E0CE
S1131930C7010E94492C60E0C80181DE811114C0F6
S113194061E0C801C1DE81110FC060E0C80184DF1D
S113195081110AC061E0C8013ADF811105C061E06C
S1131960C801F5DE882321F08FEFF801848302C0DB
S1131970F80114822496CDBFDEBFDF91CF911F9171
S11319800F91FF90EF90DF90BF90AF900895A6E085
S1131990B0E0EDECFCE00C94B430009709F459C0CD
S11319A07B018C01FC01808190E0845A9F4F092EB9
S11319B0000CAA0BBB0B89839A83AB83BC83AE0157
S11319C04F5F5F4F64E0828193810E94492C21E044
S11319D030E047E2BE016B5F7F4FF8018281938163
S11319E0FBDD811139C08D8180FF35C021E030E0FD
S11319F04BE2BE016B5F7F4FF80182819381ECDD86
S1131A0081112AC021E030E04CE2BE016A5F7F4FC1
S1131A10F80182819381E0DD81111EC06D817E8198
S1131A20072E000C880B990B0E94762F20E030E0E3
S1131A3040EF53E40E94DB2E20E030E04AE252E41F
S1131A400E94772EF701608371838283938380E001
S1131A5003C08EEF01C080EE2696E6E00C94CD30F4
S1131A60A7E0B0E0E6E3FDE00C94B230009709F49F
S1131A7073C08B017C01FC01808190E0845A9F4FEC
S1131A80092E000CAA0BBB0B89839A83AB83BC83FE
S1131A90AE014F5F5F4F64E0828193810E94492CC5
S1131AA021E030E047E2BE01695F7F4FF7018281A8
S1131AB0938192DD811153C08F8181FF4FC021E05A
S1131AC030E048E2BE01695F7F4FF7018281938174
S1131AD083DD811144C021E030E049E2BE016A5F48
S1131AE07F4FF7018281938177DD811138C021E036
S1131AF030E04AE2BE016B5F7F4FF7018281938140
S1131B006BDD81112CC08E8190E0982F88272F8166
S1131B10820F911D092E000CAA0BBB0B4D8150E0C6
S1131B2060E070E0BA01552744276C017D01C40EC2
S1131B30D51EE61EF71EC701B6010E94742F20E0D1
S1131B4030E040E859E30E940230F8016083718379
S1131B508283938380E003C08EEF01C080EE2796DA
S1131B60E8E00C94CB30A5E0B0E0E9EBFDE00C94A8
S1131B70B5300097C1F1F62E8C01FC01808190E014
S1131B8086599F4F092E000CAA0BBB0B89839A839D
S1131B90AB83BC83AE014F5F5F4F64E0838194816C
S1131BA00E94492C1D8221E030E040E1BE016B5FC0
S1131BB07F4FF801838194810FDD811115C0F8E016
S1131BC0FF9EB00111246C708D81837F682B6D831F
S1131BD021E030E040E1BE016B5F7F4FF80183817B
S1131BE09481C3DC01C08EEF2596E5E00C94CE30E1
S1131BF0A5E0B0E0EEEFFDE00C94B630009789F17B
S1131C008C01FC01808190E086599F4F092E000CC5
S1131C10AA0BBB0B89839A83AB83BC83AE014F5F52
S1131C205F4F64E0838194810E94492C1D8221E0EE
S1131C3030E040E1BE016B5F7F4FF8018381948106
S1131C40CBDC81110FC08D818C7F8D8321E030E04E
S1131C5040E1BE016B5F7F4FF8018381948185DC95
S1131C6001C08EEF2596E4E00C94CF30A5E0B0E0FF
S1131C70ECE3FEE00C94B5300097C1F1F62E8C0134
S1131C80FC01808190E086599F4F092E000CAA0B1D
S1131C90BB0B89839A83AB83BC83AE014F5F5F4FD9
S1131CA064E0838194810E94492C1D8221E030E00C
S1131CB040E1BE016B5F7F4FF801838194818CDC2E
S1131CC0811115C06D81862F8F71F0E2FF9EB001E6
S1131CD01124682B6D8321E030E040E1BE016B5F8D
S1131CE07F4FF8018381948140DC01C08EEF2596FB
S1131CF0E5E00C94CE308F929F92AF92BF92EF9218
S1131D00FF920F931F93CF93DF93CDB7DEB7269740
S1131D10CDBFDEBF009709F456C08B017C01FC01E6
S1131D20408150E046595F4F052E000C660B770B3F
S1131D3049835A836B837C83AE014F5F5F4F64E0BA
S1131D40838194810E94492C22E030E045E1BE0168
S1131D506B5F7F4FF701838194813EDC811134C036
S1131D60FD808E81F0E18F9FC00111246F2D62955B
S1131D706F70682B062E000C770B880B990B0E9452
S1131D80762F4B015C016F2D6F7070E080E090E066
S1131D900E94762F20E030E040E85DE30E940230AC
S1131DA09B01AC01C501B4010E94772E20E030E014
S1131DB048EC51E40E94772EF8016083718382839A
S1131DC0938380E001C08EEF2696CDBFDEBFDF9106
S1131DD0CF911F910F91FF90EF90BF90AF909F9084
S1131DE08F900895AAE0B0E0E8EFFEE00C94B030E4
S1131DF00097B1F179016A015B018C01FC018081DA
S1131E0090E086599F4F092E000CAA0BBB0B8F83C1
S1131E109887A987BA87AE01495F5F4F64E08381E1
S1131E2094810E94492C26E030E048E2BE016F5FB5
S1131E307F4FF80183819481CFDB811112C08981A6
S1131E409A81F501808391838B819C81F601808343
S1131E5091838D819E81F7018083918380E001C00D
S1131E608EEF2A96EAE00C94C930AAE0B0E0EBE3E6
S1131E70FFE00C94B0300097B1F179016A015B0185
S1131E808C01FC01808190E086599F4F092E000C43
S1131E90AA0BBB0B8F839887A987BA87AE01495FCA
S1131EA05F4F64E0838194810E94492C26E030E0F6
S1131EB048E1BE016F5F7F4FF801838194818CDB21
S1131EC0811112C089819A81F501808391838B816C
S1131ED09C81F601808391838D819E81F7018083AB
S1131EE0918380E001C08EEF2A96EAE00C94C93019
S1131EF0A5E0B0E0EEE7FFE00C94B5300097D1F137
S1131F00F62E8C01FC01418150E0440F551F445EC4
S1131F105F4F052E000C660B770B49835A836B8346
S1131F207C83AE014F5F5F4F64E0838194810E94A4
S1131F30492C1D8221E030E040E2BE016B5F7F4FFF
S1131F40F8018381948148DB811115C0F0E2FF9E82
S1131F50B001112460768D818F79682B6D8321E027
S1131F6030E040E2BE016B5F7F4FF80183819481D2
S1131F70FCDA01C08EEF2596E5E00C94CE30A5E0A6
S1131F80B0E0E5ECFFE00C94B5300097D1F1F62E0B
S1131F908C01FC01418150E0440F551F445E5F4FAA
S1131FA0052E000C660B770B49835A836B837C8365
S1131FB0AE014F5F5F4F64E0838194810E94492C9E
S1131FC01D8221E030E040E2BE016B5F7F4FF801EB
S1131FD08381948101DB811115C0F4E0FF9EB0017F
S1131FE011246C718D81837E682B6D8321E030E038
S1131FF040E2BE016B5F7F4FF80183819481B5DAC3
S113200001C08EEF2596E5E00C94CE30A5E0B0E05B
S1132010ECE0F0E10C94B5300097A9F1F62E8C01B8
S1132020FC01418150E0440F551F445E5F4F052E73
S1132030000C660B770B49835A836B837C83AE0158
S11320404F5F5F4F64E0838194810E94492C1D821D
S113205021E030E040E2BE016B5F7F4FF8018381F5
S11320609481BADA811110C08D81F0FA87F98D83D9
S113207021E030E040E2BE016B5F7F4FF8018381D5
S1132080948173DA01C08EEF2596E5E00C94CE308E
S1132090A5E0B0E0EEE4F0E10C94B5300097D1F1A6
S11320A0F62E8C01FC01418150E0440F551F445E23
S11320B05F4F052E000C660B770B49835A836B83A5
S11320C07C83AE014F5F5F4F64E0838194810E9403
S11320D0492C1D8221E030E041E2BE016B5F7F4F5D
S11320E0F8018381948178DA811115C0F0E2FF9EB2
S11320F0B001112460768D818F79682B6D8321E086
S113210030E041E2BE016B5F7F4FF801838194812F
S11321102CDA01C08EEF2596E5E00C94CE30A5E0D4
S1132120B0E0E5E9F0E10C94B5300097C1F1F62E8A
S11321308C01FC01418150E0440F551F445E5F4F08
S1132140052E000C660B770B49835A836B837C83C3
S1132150AE014F5F5F4F64E0838194810E94492CFC
S11321601D8221E030E042E2BE016B5F7F4FF80147
S11321708381948131DA811113C08D818C7F6F2D1D
S11321806370F82EF62AFD8221E030E042E2BE01BF
S11321906B5F7F4FF80183819481E7D901C08EEF93
S11321A02596E5E00C94CE30A4E0B0E0EAEDF0E151
S11321B00C94B0308C015B01D42EC22E86E090E0EA
S11321C00E94EA2D7C01B5010E94222BF801E382D2
S11321D0F482D082C1824D2D50E046595F4F052EC6
S11321E0000C660B770B49835A836B837C83AE01A7
S11321F04F5F5F4F64E0C7010E94492C63E0C80150
S1132200B2DC811123C060E0C801F2DC81111EC080
S113221062E0C8012BDD811119C063E0C80168DEEA
S1132220811114C067E0C801AADE81110FC061E00A
S1132230C801ECDE81110AC060E0C80129DF811108
S113224005C060E0C8016BDF882321F08FEFF8013F
S1132250858302C0F80115822496EAE00C94C93003
S1132260AAE0B0E0E6E3F1E10C94B0300097B9F1F4
S113227079016A015B018C01FC01818190E0880F86
S1132280991F4C96092E000CAA0BBB0B8F839887C1
S1132290A987BA87AE01495F5F4F64E08381948167
S11322A00E94492C26E030E048E2BE016F5F7F4F78
S11322B0F8018381948190D9811112C089819A8116
S11322C0F501808391838B819C81F60180839183C6
S11322D08D819E81F7018083918380E001C08EEF20
S11322E02A96EAE00C94C9304F925F926F927F92E3
S11322F08F929F92AF92BF92CF92DF92EF92FF9212
S11323000F931F93DC01892B09F493C016968D91CA
S11323109C911797681779070CF48BC01A968D91C6
S11323209C911B97681779070CF083C018968D91C0
S11323309C911997481759070CF47BC01C968D91F2
S11323409C911D97481759070CF073C0ED91FC91AF
S11323501197C080D180E280F3804B01072E000CDE
S1132360AA08BB088C149D04AE04BF040CF061C021
S113237077FD5FC044805580668077804A01052ED2
S1132380000CAA08BB0884149504A604B7040CF036
S113239050C057FD4EC0560184AD8230D9F0833011
S11323A051F081111FC0C2010197841B950B52018A
S11323B0AB01BC0117C081E0C81AD108C601861B55
S11323C0970BBC0191E0491A5108C201841B950B7B
S11323D0AC0108C091E0C91AD108C61AD70A520143
S11323E0BA01A601CD018D5B9F4FFA01A3E0F595DB
S11323F0E795AA95E1F7EA9DD001EB9DB00DFA9D12
S1132400B00D11246A0F7B1FDC01A60FB71F4770A4
S113241055278C91FA01E052FF4F012B022B032B1D
S113242021F0E491482F4E2B03C04491409548235A
S11324304C931F910F91FF90EF90DF90CF90BF903E
S1132440AF909F908F907F906F905F904F90089582
S1132450A6E0B0E0EEE2F2E10C94A8308B839C831A
S1132460009709F4DFC0DC011A96ED91FC911B97EB
S11324706E177F070CF0D6C01C968D919C911D970A
S1132480481759070CF0CEC03B01620E731E169616
S11324908D919C911797681679060CF4C3C02A0194
S11324A0400E511E18962D913C91199742165306D1
S11324B00CF4B8C04501560149835A831B01AD830E
S11324C0BE83EE2061F17A01421753070CF47901BF
S11324D0281639060CF41C01E615F7050CF43F0127
S11324E0E414F5040CF09EC0ED81FE81848595858D
S11324F0E816F9060CF096C06101C614D7045CF422
S113250095018401A701B6018D819E81EDDEFFEF67
S1132510CF1ADF0AF2CF4FEFE41AF40AE1CF6B824D
S11325207C82E615F70514F4EB83FC83610128161D
S113253039060CF46C0189819A818217930794F00F
S11325407601AB81BC81EA16FB0664F49501840133
S113255049815A81B7018D819E81C6DEBFEFEB1A96
S1132560FB0AEFCFED81FE81848595858415950561
S1132570A4F07201F1E0EF1AF1084B815C81C416FA
S1132580D5065CF495018401A701B6018D819E8175
S1132590ABDE5FEFC51AD50AF0CFAD81BE811C96C4
S11325A08D919C911D97841595050CF42C01ED815A
S11325B0FE8180859185E980FA80E816F9060CF49D
S11325C07C01AD81BE8116968D919C91179728163A
S11325D039067CF06701C414D5045CF495018401C8
S11325E0A601B1018D819E817FDEBFEFCB1ADB0A8C
S11325F0F2CFED81FE81828593858615970594F04F
S11326006301F1E0CF1AD108E414F5045CF49501F8
S11326108401A701B6018D819E8166DE4FEFE41A25
S1132620F40AF2CF2696E2E10C94C130AF92BF9245
S1132630CF92DF92EF920F931F93009781F05A018C
S11326406B01DC01ED91FC910481158120813181C4
S1132650EE24E39440E050E060E070E0F9DE1F9186
S11326600F91EF90DF90CF90BF90AF900895A6E0C8
S1132670B0E0EDE3F3E10C94A830FC01892B09F4FC
S113268051C0460F571F86819781681779070CF44C
S1132690BC01A285B3855D016A177B070CF45B015D
S11326A0481759070CF4AC01A983BA834A175B078E
S11326B014F449835A8380859185821793070CF417
S11326C0C90184849584881599050CF44C0116017C
S11326D02701EB83FC83802F90E06C01D594C79491
S11326E08C199D09880D991D8D839E8389819A81FA
S11326F0A816B906BCF434016C187D088D819E813E
S1132700681679065CF492018101A301B5018B81FD
S11327109C81EADD9FEF691A790AF0CF8FEFA81A3E
S1132720B80AE4CF2696E2E10C94C130A6E0B0E00A
S1132730ECE9F3E10C94A830FC01892B09F451C0B5
S1132740460F571F86819781821793070CF4C9019E
S113275082849384881599050CF44C0180859185B5
S1132760681779070CF4BC01248535855901621773
S113277073070CF45B01481759070CF4AC01298367
S11327803A834217530714F449835A8316012701E5
S1132790EB83FC83802F90E06C01D594C7948C1953
S11327A09D09880D991D8D839E8389819A81A81620
S11327B0B906BCF434016C187D088D819E816816BD
S11327C079065CF492018101A501B3018B819C819E
S11327D08BDD9FEF691A790AF0CF8FEFA81AB80A38
S11327E0E4CF2696E2E10C94C130A1E0B0E0EBEF37
S11327F0F3E10C94B6308C016983FC01FF9660E030
S113280070E08081918134D2F801EF5BFF4F41E0A9
S113281050E0BE016F5F7F4F808191810E94301E26
S11328202196E4E00C94CF301F93CF93DF9300976D
S113283009F443C0EC0160E4D8DFE881F9818481C4
S11328409581A681B78124AD2D7F11F4808191817A
S11328508032910539F08034910531F0409769F563
S113286011E003C013E001C017E061E2CE01BDDF57
S113287060E0CE01BADF6FE7CE01B7DF62E2CE01DE
S1132880B4DF60E0CE01B1DF612FCE01AEDFFE0127
S1132890FF9661E070E080819181EAD1BE016D5BB9
S11328A07F4FFE01EF5BFF4F40E052E0808191815A
S11328B00E94301ECE010E94CE01DF91CF911F9164
S11328C00895009711F06FEA90CF0895009711F0E2
S11328D06EEA8BCF08951F93CF93DF93009739F05F
S11328E0162FEC0161E881DF612FCE017EDFDF91DD
S11328F0CF911F910895CF93DF93EC0160E070E0D6
S11329008DAD9EADB5D162E070E080E090E00E94B4
S1132910D32D61E070E08DAD9EADAAD164E670E088
S113292080E090E00E94D32D6DE8CE015EDF64E18B
S1132930CE015BDF69EDCE0158DF61EFCE0155DFDB
S113294061E8CE0152DF6FE8CE014FDF60EACE01CD
S11329504CDF60ECCE0149DF6AEDCE0146DF60E07A
S1132960CE0143DF60E2CE0140DF62E070E080E050
S113297090E00E94D32DFE01ED5BFF4FCE018D5BF5
S11329809D4F1192E817F907E1F7CE014DDF60E0A2
S1132990CE01A1DFDF91CF910895A0E0B0E0E3ED97
S11329A0F4E10C94B030EC017B015A016901C801D7
S11329B0BE01635C7F4F0E94092A8E01015C1F4F98
S11329C0B801C6010E94092A6E0181E4C80ED11C17
S11329D0B601C5010E94652AF60180819181892B87
S11329E0C1F1F80180819181892B99F1E882F98202
S11329F081E694E18A8B9B8B86E694E18C8B9D8B9C
S1132A0084E791E18C8F9D8F88E292E18A8F9B8F7E
S1132A1087E393E18CA39DA386E993E18EA39FA30F
S1132A2086E193E188A799A784E194E18EAB9FABFB
S1132A301E821F8218861986F701808191818A87F8
S1132A409B87848195818C879D87CAAFDBAFCE013C
S1132A5052DFCDB7DEB7EAE00C94C9300F931F9371
S1132A608B019C01BB27A32F922F812F602F782FDE
S1132A70C9011F910F910895A0E0B0E0E2E4F5E1EF
S1132A800C94A930E8E7F8E28FEF80838183128207
S1132A901382C0E5D8E280E1982E988294E8A92EAA
S1132AA0A9821A821B8226EB722E7C823CE9632E59
S1132AB06D8248E9542E5E821F821FE718871987AA
S1132AC01A871B869C86AD861E861F8600EA088BA5
S1132AD0098B0A8B1B8A1C8A1D8A1E8A1F8A988E60
S1132AE0A98E1A8E1B8E50EFB52EBC8EBD8EBE8E57
S1132AF01F8E69E3862E88A289A28AA21BA2C09097
S1132B007828D0907928E0907A28F0907B28C70123
S1132B10B601A4DF6CA37DA38EA39FA3CCE3D8E26C
S1132B209882A9821A821B828AE98C8386ED8D831E
S1132B301E821F827AE4472E4886ECE23E2E3986B6
S1132B401A861B868C868D868E861F86C701B601E3
S1132B5085DF688B798B8A8B9B8BC8E0D8E298825F
S1132B60A9821A821B827C826D825E821F8285E525
S1132B7088878DEA89871A861B861C871D871E878E
S1132B801F86988AA98A1A8A1B8A0C8B0D8B0E8B36
S1132B901F8A188E84E0898F1A8E1B8E1C8F1D8FBE
S1132BA01E8F1F8E98A2A9A21AA21BA2BCA2BDA20C
S1132BB0BEA21FA248A639A61AA61BA61CA61DA61D
S1132BC01EA61FA6C701B60149DF68AB79AB8AAB65
S1132BD09BABCCEDD7E29882A9821A821B827C82BD
S1132BE06D825E821F82188719871A871B869C86CE
S1132BF0AD861E861F86088B098B0A8B1B8A1C8A4E
S1132C001D8A1E8A1F8A988EA98E1A8E1B8EBC8ED0
S1132C10BD8EBE8E1F8E88A289A28AA21BA2BCA2D0
S1132C20BDA2BEA21FA2C701B60118DF68A779A77B
S1132C308AA79BA7C8ECD7E2788269825A821B8252
S1132C401C831D831E831F82088709870A871B86AE
S1132C501C861D861E861F86C701B601FFDE688B93
S1132C60798B8A8B9B8BCDB7DEB7E1E10C94C230B4
S1132C70CF93DF93009709F439C0DC011196ED91ED
S1132C80FC911297C585D685EC85FD85DF0185E02D
S1132C90B695A7958A95E1F7AA0FBB1FAA5FBF4D0A
S1132CA00D90BC91A02D8889882351F014968C91A5
S1132CB01497E7706827E623E8271496EC9310C06E
S1132CC08E85882321F06170772781E06827E7707B
S1132CD0FF27E851FF4F672B29F0E4911596EC93F9
S1132CE080E005C0E4911696EC93FACF8EEFDF9165
S1132CF0CF910895CF93DF93009709F43CC0DC0192
S1132D001196ED91FC911297C585D685EC85FD85CC
S1132D10DF0185E0B695A7958A95E1F7AA0FBB1F59
S1132D20AA5FBF4D0D90BC91A02D8889882341F0E6
S1132D3018968C9190E08E239F23877099271DC04D
S1132D408E85E770FF27882369F018968C91E851E7
S1132D50FF4FE491E82331E020E009F030E0832FD5
S1132D60922F0BC018968C91E851FF4FE491E82301
S1132D708E2F90E002C08FEF9FEFDF91CF910895E7
S1132D80CF93DF93009751F0EB01B4DFA0E0B0E004
S1132D9088839983AA83BB8380E001C08EEFDF918F
S1132DA0CF910895CF93DF93009709F448C0DC01D5
S1132DB01196ED91FC911297C585D6852C853D859C
S1132DC0F90145E0F695E7954A95E1F7EE0FFF1F07
S1132DD0EA5FFF4DA081B1814889411132C027705B
S1132DE0332741E050E0022E02C0440F551F0A94DD
S1132DF0E2F7FC0146835783CD014096662381F0B8
S1132E006130F9F4FC01E20FF31F1082EC85FD85BB
S1132E10E770FF27E851FF4FE4911296EC930DC041
S1132E20FC01E20FF31F1082EC85FD85E770FF279C
S1132E30E851FF4FE4911196EC9380E003C08EEFCC
S1132E4001C08BEFDF91CF9108950F931F93CF9320
S1132E50DF9328E1DC011D922A95E9F7FB0120812B
S1132E60213059F5EC0169837A8305851685D801EB
S1132E7050968C915097811109C01F966C91CE0188
S1132E8091DFF80161897289CE01F2DED8011C96C6
S1132E908C911C9787708D831C96ED91FC911D97E6
S1132EA085E0F695E7958A95E1F7EE0FFF1FEA5F57
S1132EB0FF4D808191818B839C83DF91CF911F9102
S1132EC00F910895CF93DF93EC0114DF892B19F44C
S1132ED08885811108C0CE010DDF892B51F18885C9
S1132EE0811127C013C0188681E08E8B8F8BE985F2
S1132EF0FA85309721F060E08B859C850995E989F6
S1132F00FA893097B1F08B899C8912C081E0888757
S1132F108D8B8F8BE985FA85309721F061E08B8565
S1132F209C850995ED85FE85309719F08F859889E4
S1132F300995DF91CF910895A2E0B0E0E2EAF7E1CC
S1132F400C94B23029E1DC011D922A95E9F7FB01CA
S1132F502081233009F05FC07B018C0144E050E004
S1132F6062E075E2CF0101960E946232892B29F05A
S1132F7085EFD80158968C934EC019821A82CE01DF
S1132F8001969F938F9387E095E29F938F93C70158
S1132F9005969F938F930E9470320F900F900F901D
S1132FA00F900F900F90019719F789819A81892BBF
S1132FB0F9F6C0902A20D0902B20F801C68AD78A2F
S1132FC01082D7011D96ED91FC911E9780899189FD
S1132FD0A289B3899C01AD01220F331F441F551FE1
S1132FE060913A2070913B2080913C2090913D204B
S1132FF00E946530215031092F3F310519F010F03E
S11330002FEF30E0F6012583D8015696ED91FC911F
S1133010579788E081832296E8E00C94CB30EF92B6
S1133020FF920F931F93CF93DF93FC01211531057A
S113303009F479C0A689B78917966C93A689B789CC
S113304014968C91149786FFFBCF14968C91149749
S113305084FF0BC083E013968C930688F789E02DD8
S113306083818370E9F783EF6CC0DA01240F351F85
S1133070C689D789A217B30799F08D918F83C68922
S1133080D7898C8186FFFDCF8C8184FFF1CF83E0CB
S11330908B830688F789E02D83818370E9F7E3CF7A
S11330A0E114F10409F442C081E08B83A689B78955
S11330B013968C9113978370D9F7A689B7896160A9
S11330C017966C93A689B78914968C91149786FFEA
S11330D0FBCF14968C91149784FF0AC083E0139657
S11330E08C930688F789E02D83818370E9F7BBCF41
S11330F0D80180E090E0A701415051098E159F0549
S1133100A9F0C689D7898417950711F022E001C078
S113311026E02B83C689D7892C8127FFFDCF2F81F9
S11331202D930196EBCFE114F10439F6A689B78902
S113313083E013968C930688F789E02D838183704E
S1133140E9F7CDB7DEB7E6E00C94CD30EF92FF920D
S11331500F931F93009731F0660F61DF882321F0EE
S113316083EF03C08EEF01C080E01F910F91FF90A9
S1133170EF900895EF92FF920F931F93CF93DF93F5
S1133180009769F0E9018A01660F790120E030E0D7
S113319040E050E044DF811104C0CE0104C08EEF52
S11331A001C083EF9FEFCDB7DEB7E6E00C94CD30DE
S11331B0EF92FF920F931F93CF93DF93009759F0F1
S11331C0E901660FE12CF12C00E010E028DF811109
S11331D004C0CE0104C08EEF01C083EF9FEFCDB7D2
S11331E0DEB7E6E00C94CD30009741F0DC01DD96CB
S11331F0ED91FC91DE978081816080830895009732
S113320041F0DC01DD96ED91FC91DE9780818E7FAB
S113321080830895A0E0B0E0E0E1F9E10C94B230DD
S1133220FC01802F309709F46AC0460F571F0681AE
S11332301781601771070CF4B801A285B3856A176A
S11332407B071CF0BD0161507109401751070CF454
S1133250A8014A175B071CF0AD0141505109A08534
S1133260B185A217B3070CF4D90124853585A217BB
S1133270B30714F0D901119790E09C013595279577
S11332808C01021B130BC5ADD6AD88898111FDCF0E
S11332907A8BC5ADD6AD698BC5ADD6AD5C8BC5ADEE
S11332A0D6AD4B8BC5ADD6ADCD01821B930B9E8B9A
S11332B0C5ADD6AD8A2F821B8D8BC5ADD6ADCD01E4
S11332C0800F911F988FC5ADD6AD0A0F0F8BA5AD9A
S11332D0B6ADA701662777275B964C93A5ADB6AD2F
S11332E077276F2D5E2D4D2D5A964C93A5ADB6AD17
S11332F05996CC9205ACF6ADE02D85E0808BCDB728
S1133300DEB7E8E00C94CB30CF92DF92EF92FF92DD
S11333100F931F93FC01892B09F45DC0460F571FBF
S113332020853185621773070CF4B901848595856E
S1133330681779071CF0BC016150710942175307E3
S11333400CF4A901481759071CF0AC01415051096C
S113335010E0C80195958795081B190BA5ADB6AD6E
S113336050962C9150972111FBCF52961C92A5ADEB
S1133370B6AD51968C93A5ADB6AD54961C93A5AD40
S1133380B6AD53960C93A5ADB6AD56967C93A5AD4C
S1133390B6AD55966C93A5ADB6AD58965C93A5ADF8
S11333A0B6AD57964C93A5ADB6ADA7016627772762
S11333B05B964C93A5ADB6AD77276F2D5E2D4D2D45
S11333C05A964C93A5ADB6AD5996CC9205ACF6ADD4
S11333D0E02D85E0808B1F910F91FF90EF90DF909F
S11333E0CF900895A9E0B0E0E8EFF9E10C94A8309B
S11333F0FC01892B09F402C182859385681779073A
S11334000CF0FCC084849584481559050CF0F6C072
S11334103B01620E731E6B827C82A681B781A983F5
S1133420BA836A167B060CF4E9C03A01600E711E79
S1133430A085B185A887B9876A167B060CF4DEC01F
S11334401A014A175B070CF41D012B0149815A81AB
S1133450641775070CF42A01AB81BC81A817B9075E
S11334602CF0AC01415051094B835C8368147904FE
S113347024F0340151E0651A710845AD56ADDA0106
S113348050966C9150976111FACFEE2009F440C028
S113349052965C92A5ADB6AD51964C92A5ADB6AD23
S11334A0C201820F931F54969C93A5ADB6AD240D13
S11334B053962C93A5ADB6AD56963C92A5ADB6AD3C
S11334C055962C92A5ADB6ADC101800F911F5896AB
S11334D09C93A5ADB6AD422D400F57964C93A5AD28
S11334E0B6ADA601662777275B964C93A5ADB6AD1E
S11334F077276D2D5C2D4B2D5A964C93A5ADB6AD0B
S11335005996AC9205ACF6ADE02D85E0808B76C083
S11335101B81BC81BD832B813C818217930714F4EA
S1133520182F9D8349815A814E835F834415550525
S113353014F44E825F8245015601E983FA8388853B
S113354099852816390654F07501640101E091014A
S1133550412F5D816E817F81CF015CDEA981BA81BB
S11335601C968D919C911D978615970564F07501A5
S1133570640101E0930121503109412F5D816E8185
S11335807F81CD0147DEE981FA81848595856E824C
S11335907F828615970514F48E839F83A981BA814F
S11335A018966D907C901997621473040CF4310191
S11335B0E981FA8186819781481659064CF0750194
S11335C0640101E092014E815F81B301CF019CDE71
S11335D0A981BA811A968D919C911B97EB81FC81EC
S11335E08E179F075CF09F0121503109750164011A
S11335F001E04E815F81B301CD0186DE2996E2E1CF
S11336000C94C130AF92BF92CF92DF92EF920F939E
S11336101F930097A1F05A016B01DC01ED91FC911D
S11336200481158101501109208131812150310912
S1133630EE24E39440E050E060E070E0D3DE1F91BC
S11336400F91EF90DF90CF90BF90AF900895A0E0DE
S1133650B0E0EDE2FBE10C94AE30FC01892B09F4FF
S113366088C086819781681779070CF482C08285A7
S11336709385681779070CF07CC08085918548177D
S113368059070CF476C084859585481759070CF0C2
S113369070C0C081D18188819981AA81BB816B016D
S11336A0072E000CEE08FF08C816D906EA06FB062A
S11336B00CF05FC077FD5DC0CC80DD80EE80FF80C4
S11336C04A01052E000CAA08BB088C149D04AE0404
S11336D0BF040CF04EC057FD4CC0CCADC230B9F0A5
S11336E0C33049F0C11118C0C6010197841B950B62
S11336F0AB01BC0111C00197DC01A61BB70BBD01D6
S1133700C6010197DC01A41BB50BAD0105C00197EF
S1133710861B970BBA01AC01A5ADB6AD50968C9142
S113372050978111FBCF52967C93A5ADB6AD5196BF
S11337306C93A5ADB6AD56965C93A5ADB6AD559656
S11337404C93A5ADB6ADA901662777275B964C933C
S1133750A5ADB6AD7727632F522F412F5A964C93C0
S1133760A5ADB6AD59960C9305ACF6ADE02D82E04F
S1133770808BCDB7DEB7ECE00C94C730CF93DF93EA
S1133780FC01DA018FE3EF0119928A95E9F76115DB
S1133790710509F45AC0109709F457C045AF56AFE4
S11337A06083718384EF98E1828B938B8FEF98E130
S11337B0848B958B87E29BE1848F958F82EF99E1CF
S11337C0828F938F8AE099E184A395A384E899E199
S11337D086A397A382E09BE180A791A71682178214
S11337E010861186EB0188819981828793878C8169
S11337F09D8184879587E2AFF3AF88AD19968C934A
S11338001997C081D1818CA91A968C931A97C0817B
S1133810D1818CA514968C931497C081D18188A5ED
S113382015968C931597C081D18188A918968C938D
S11338301897C081D1818CA113968C931397019012
S1133840F081E02D80A11B968C93DF91CF91089598
S1133850A4E0B0E0EEE2FCE10C94AE3026E1DC0141
S11338601D922A95E9F7FB012081243009F0EAC072
S11338707B018C016B01FFEFCF1ADF0A44E050E0BB
S11338806AE075E2C6010E946232892B19F085EF65
S1133890D801D7C08FEF9FEF8B839C8389839A8352
S11338A06DE270E0C6010E944E325C016EE270E08F
S11338B0C6010E944E326C01A114B10441F3892B5C
S11338C031F3CE0103969F938F93A7E08A2EA5E24E
S11338D09A2E9F928F92C50101969F938F930E9477
S11338E070325C01CE0101969F938F939F928F92C9
S11338F0BFEFCB1ADB0ADF92CF920E9470328A0D9F
S11339009B1DCDBFDEBF029711F68B819C81892B55
S113391009F0BDCF89819A818430910508F0B7CF31
S1133920D80115961C92159716968C931697A0900D
S11339303220B09033205496AD92BC925597119694
S1133940ED92FC921297F701A585B68558968C9155
S11339505897F4E08F9FC0011124982F9C705496BF
S11339600D911D912D913C91579740913A20509182
S11339703B2060913C2070913D206A017B01F694CC
S1133980E794D794C794C016D106E206F30608F468
S113399046C06A017B01E2E0F694E794D794C794A9
S11339A0EA95D1F7C016D106E206F306D0F16A0112
S11339B07B0183E0F694E794D794C7948A95D1F772
S11339C0C016D106E206F30670F16A017B01F4E049
S11339D0F694E794D794C794FA95D1F7C016D10614
S11339E0E206F30610F16A017B01E5E0F694E79440
S11339F0D794C794EA95D1F7C016D106E206F30628
S1133A00B0F086E076956795579547958A95D1F7F6
S1133A10401751076207730760F083E00BC080E82A
S1133A2009C080E007C081E805C081E003C082E8E6
S1133A3001C082E0892B59969C9191118062806526
S1133A40D5018C932496ECE00C94C730009729F4AC
S1133A508EEF80B98EEF9FEF0895DC011196ED9102
S1133A60FC9112970584F685E02D0288F389E02DF8
S1133A70DF0125E0B695A7952A95E1F7AA0FBB1FAC
S1133A80AA5FBF4D0D90BC91A02DE770FF27E851B0
S1133A90FF4FE4911596EC93FC01108280E090E0D6
S1133AA00895A0E0B0E0E7E5FDE10C94AC30DC0162
S1133AB0892B19F48EEF80B971C01196ED91FC91A8
S1133AC01297C585D68513968C911397811117C0CB
S1133AD0CA88DB88C601E5E096958795EA95E1F703
S1133AE0880F991F8A5F9F4DFC01E080F180F601E9
S1133AF0E770FF27E851FF4F8491F701868359014E
S1133B007A013B014D015496CD90DC905597A80164
S1133B1060E070E0C9010E944732F301A3014E0D39
S1133B205F1DE417F50751F08191D60113968C932C
S1133B30D60112968C9187FFFBCFF3CFF5010A0DC6
S1133B401B1D9FEFE017F10769F0D60113969C93B4
S1133B50D60112968C91129787FFFACF13968C9107
S1133B608193F0CFF4018381811117C0EA89FB8925
S1133B70DF0195E0B695A7959A95E1F7AA0FBB1FCB
S1133B80AA5FBF4D0D90BC91A02DE770FF27E851AF
S1133B90FF4FE4911596EC9301C080E0CDB7DEB7FA
S1133BA0EEE00C94C530CF93DF93DC01892B21F434
S1133BB08EEF80B99FEF51C01196ED91FC91129751
S1133BC08585968513962C911397211116C0EC01C7
S1133BD0EA89FB89EF0125E0D695C7952A95E1F797
S1133BE0CC0FDD1FCA5FDF4D0990D881C02DE7706F
S1133BF0FF27E851FF4FE491EE835496CD91DC9179
S1133C005597FB01640F751F3FEFE617F70739F06F
S1133C103B832A8127FFFDCF2B812193F6CF139677
S1133C202C91211119C0DC015296ED91FC9153970E
S1133C30DF0185E0B695A7958A95E1F7AA0FBB1F2A
S1133C40AA5FBF4D0D90BC91A02DE770FF27E851EE
S1133C50FF4FE4911596EC93CA01DF91CF9108953B
S1133C60CF93DF93DC01892B21F48EEF80B99FEF92
S1133C7051C01196ED91FC91129785859685139606
S1133C802C911397211116C0EC01EA89FB89EF01ED
S1133C9025E0D695C7952A95E1F7CC0FDD1FCA5FBD
S1133CA0DF4D0990D881C02DE770FF27E851FF4F01
S1133CB0E491EE835496CD91DC915597FB019B01E1
S1133CC0240F351FE217F30739F061916B836A8182
S1133CD067FFFDCF6B81F6CF13962C91211119C08C
S1133CE0DC015296ED91FC915397DF0185E0B69586
S1133CF0A7958A95E1F7AA0FBB1FAA5FBF4D0D9048
S1133D00BC91A02DE770FF27E851FF4FE491159671
S1133D10EC93CA01DF91CF910895A0E0B0E0E3E90C
S1133D20FEE10C94B230FC01892B19F48EEF80B9BA
S1133D3076C0A489B589C181D2810D84DE85C02D68
S1133D400C891D892E893F8940913A2050913B204E
S1133D5060913C2070913D206A017B01F694E794C8
S1133D60D794C794C016D106E206F30608F446C0F9
S1133D706A017B0182E0F694E794D794C7948A950C
S1133D80D1F7C016D106E206F306D0F16A017B0131
S1133D90D3E0F694E794D794C794DA95D1F7C01694
S1133DA0D106E206F30670F16A017B01C4E0F694E1
S1133DB0E794D794C794CA95D1F7C016D106E20602
S1133DC0F30610F16A017B0195E0F694E794D79429
S1133DD0C7949A95D1F7C016D106E206F306B0F05F
S1133DE086E076956795579547958A95D1F740175C
S1133DF051076207730760F093E00BC090E809C0B5
S1133E0090E007C091E805C091E003C092E801C0CA
S1133E1092E08C918C77982B9C93108280E0CDB7A4
S1133E20DEB7E8E00C94CB30CF93DF93009729F40E
S1133E308EEF80B98EEF9FEF25C0EC014F8158853E
S1133E4060E070E06ADFE981FA810584F685E02D9F
S1133E500288F389E02DDF0185E0B695A7958A9560
S1133E60E1F7AA0FBB1FAA5FBF4D0D90BC91A02D17
S1133E70E770FF27E851FF4FE4911696EC93188200
S1133E8080E090E0DF91CF9108950F931F93CF933B
S1133E90DF93EC01892B61F10D811E810115110560
S1133EA039F180913A2090913B20A0913C20B0912F
S1133EB03D20BC01CD0123E09695879577956795C4
S1133EC02A95D1F7E981FA810584F685E02D2089C8
S1133ED03189428953890E94653021503109F801A2
S1133EE02683ED81FE81832F8F70878380E001C05C
S1133EF08EEFDF91CF911F910F910895CF93DF93B0
S1133F00009731F1DC011596ED91FC9116973097ED
S1133F10F9F0248111960D90BC91A02D1D960D9061
S1133F20BC91A02D54968C91882341F0813041F0AE
S1133F30823041F0843041F083E007C080E005C066
S1133F4081E003C082E001C087E0848380E001C097
S1133F508EEFDF91CF910895DC01892BC1F0159686
S1133F60ED91FC911697309791F09481977F11967B
S1133F700D90BC91A02D1D960D90BC91A02D559631
S1133F808C91813009F49860948380E008958EEFD9
S1133F900895DC01892BE1F01596ED91FC911697BB
S1133FA03097B1F094819F7C11960D90BC91A02D17
S1133FB01D960D90BC91A02D56968C91823011F4D3
S1133FC0906203C0813009F49063948380E0089583
S1133FD08EEF0895CF93DF93EB01009741F1DC015D
S1133FE01596ED91FC911697309709F1478126813A
S1133FF080913A2090913B20A0913C20B0913D20AB
S1134000BC01CD0133E096958795779567953A95F0
S1134010D1F730E0342B032E000C440B550B0E94D7
S11340206530288339834A835B8380E001C08EEF47
S1134030DF91CF910895009799F0DC0115962D91A9
S11340403C911697232B61F01196ED91FC911297F8
S11340500584F685E02D8489FB01808380E0089542
S11340608EEF08950097C9F0DC0115962D913C91CF
S11340701697232B91F01196ED91FC9112970584DC
S1134080F685E02D8589883021F481E0FB01808369
S113409002C0DB011C9280E008958EEF0895009722
S11340A099F0DC0115962D913C911697232B61F024
S11340B01196ED91FC9112970584F685E02D868981
S11340C0FB01808380E008958EEF0895DC0115964E
S11340D0ED91FC911697818185FFFDCF6083089552
S11340E0EF92FF920F931F93CF93DF93009771F09A
S11340F08B01EC017B01C701801B910BF7016191DE
S11341007F01662329F0CE01E1DFF5CF80E090E066
S1134110CDB7DEB7E6E00C94CD30DC0118962C91D7
S113412030E0220F331FF901E458F74DA081B1812B
S1134130AB2BA9F4DA011197A083B183DC011596A6
S1134140ED91FC911697D901A457B74DCB01019677
S11341508D939C93DB018C918083CA01089580E048
S113416090E008951F920F920FB60F9211248F932F
S11341709F93EF93FF9380917C2890917D28892BC6
S113418029F410928C2810928D281BC080917C28D1
S113419090917D28E0918C28F0918D28309719F02A
S11341A08081809300043196E0938C28F0938D28CD
S11341B080917C2890917D28019780937C2890930E
S11341C07D28FF91EF919F918F910F900FBE0F90DB
S11341D01F901895089508957894E0E4F0E017820C
S11341E081E0868386E8858380EA84830895E0E419
S11341F0F0E017821682158214820895A0E0B0E0E0
S1134200E4E0F1E20C94AE3059016A017B018C01C7
S113421020919C2830919D2840919E2850919F2860
S11342206091A0287091A1288091A2289091A32840
S11342300E94D9304901D42FC52FB62FA72FF82FAC
S1134240E92F8FB7F894A0909C28B0909D28C09037
S11342509E28D0909F28E090A028F090A12800915B
S1134260A2281091A3288FBF94014D2F5C2F6B2F90
S11342707A2F8F2F9E2F0E94EE3009F010F7CDB7C2
S1134280DEB7ECE00C94C7301F920F920FB60F927A
S113429011242F933F934F935F936F937F938F9347
S11342A09F93AF9320919C2830919D2840919E2804
S11342B050919F286091A0287091A1288091A228F4
S11342C09091A328A1E00E94E23020939C2830938F
S11342D09D2840939E2850939F286093A028709314
S11342E0A1288093A2289093A328A895AF919F9189
S11342F08F917F916F915F914F913F912F910F908B
S11343000FBE0F901F90189584EA98E265CF089528
S113431084EA98E26CCF089503D080E090E0089599
S1134320A6E7B0E0E6E9F1E20C94A93004E110E07C
S113433020E030E040E050E060E070E0CE01C19663
S11343400E94772D04E620E030E040E050E060E099
S113435070E0CE0181960E94772D02E320E030E0E8
S113436040E050E060E070E0CE0141960E94772D7D
S113437009E120E030E040E050E060E070E0CE0190
S113438001960E94772D21E041E06FE075E2CE01B5
S1134390815B9F4F0E94D41041E06FE075E2CE0133
S11343A08B5A9F4F0E946C0C83E492E00E94EA2D8A
S11343B04C0105E115E22EE135E246E255E26BE7F8
S11343C070E20E94CD146EE275E2CE01875B9F4FCE
S11343D00E94222BCC24CA94DC2CE12CF12C01E089
S11343E010E020E030E043E050E060E070E08091D5
S11343F0AD289091AE280E940202AA24AA94BA2C55
S1134400C12CD12CEE24E39405E010E025E030E04B
S113441043E050E061E070E08091AD289091AE28D7
S11344200E94DE01E12C25E030E049E050E061E04B
S113443070E08091AD289091AE280E94DE01CC24DA
S1134440CA94DC2CE12CF12C01E020E130E040E1C5
S113445050E061E070E08091AD289091AE280E9418
S11344602D0228E030E04AE050E062E170E0809103
S1134470AD289091AE280E94BC021F921F9277240F
S11344807A947F927F92A12CB12C6501EE24E3945F
S113449000E010E020E030E040E150E065E375E248
S11344A08091AD289091AE280E94CC08CC24CA9467
S11344B0DC2CE12CF12C01E028E030E047E150E075
S11344C060E270E08091AD289091AE280E94E602EF
S11344D000E028E030E047E150E062E370E08091E2
S11344E0AD289091AE280E94E602AA24AA94BA2C80
S11344F0C12CD12CEE24E39404E010E028E030E059
S113450047E150E065E470E08091AD289091AE28D9
S11345100E946D07E12C08E010E024E030E047E160
S113452050E063E570E08091AD289091AE280E9440
S11345306D07EE24E39409E110E02EE630E040E15B
S113454050E06AE570E08091AD289091AE280E9419
S11345507F0483E0E82E26E730E040E150E062E6A5
S113456070E08091AD289091AE280E947F048091E4
S1134570AD289091AE280E94A50A0F900F900F903D
S11345800F908114910409F4C3C040E050E0BA01D3
S1134590C4010E94D602CC24CA94DC2CE12CF12C58
S11345A001E010E020E030E043E050E060E070E043
S11345B0C4010E940202AA24AA94BA2CC12CD12CB0
S11345C0EE24E39405E010E025E030E043E050E021
S11345D061E070E0C4010E94DE01E12C25E030E0DE
S11345E049E050E061E070E0C4010E94DE01CC24A7
S11345F0CA94DC2CE12CF12C01E020E130E040E114
S113460050E061E070E0C4010E942D0228E030E037
S11346104AE050E062E170E0C4010E94BC021F92D3
S11346201F927F927F92A12CB12C6501EE24E3941A
S113463000E010E020E030E040E150E065E375E2A6
S1134640C4010E94CC08CC24CA94DC2CE12CF12CAB
S113465001E028E030E047E150E060E270E0C401AE
S11346600E94E60200E028E030E047E150E062E327
S113467070E0C4010E94E602AA24AA94BA2CC12CB8
S1134680D12CEE24E39404E010E028E030E047E18C
S113469050E065E470E0C4010E946D07E12C08E07D
S11346A010E024E030E047E150E063E570E0C4014D
S11346B00E946D07EE24E39409E110E02EE630E059
S11346C040E150E06AE570E0C4010E947F0463E0C9
S11346D0E62E26E730E040E150E062E670E0C401F7
S11346E00E947F04C4010E94A50A60ED77E080E087
S11346F090E00E94D32D40E050E0BA01C4010E9432
S1134700D602C4010E94A50A0F900F900F900F903B
S1134710FE01EE58FF4F1082FF24F394312C3E012A
S113472021E4620E711C2F0185EA98E27DD7CE0147
S1134730C1960E949D2DCE0181960E949D2D8823B5
S113474009F462C0B30188E595E20E94382CF301B4
S11347508081882339F1332071F00CE013E020E0EC
S113476030E040E050E060E070E0CE0181960E94CD
S11347708D2D312C0EC004EB10E020E030E040E041
S113478050E060E070E0CE0181960E948D2D3324CC
S1134790339460E088E595E20E94FE2BA12CB12CB5
S11347A0650116C004E110E020E030E040E050E094
S11347B060E070E0CE0181960E948D2D61E088E575
S11347C095E20E94FE2BAA24AA94BA2CC12CD12CC7
S11347D0EE24E39405E010E025E030E048E150E009
S11347E060E670E0C4010E94DE01C4010E94A50AD3
S11347F025E030E048E150E060E670E08091AD28CB
S11348009091AE280E94DE01B2018EE595E20E94ED
S1134810382CCE0141960E949D2D882309F454C35F
S1134820F2018081811150C3FF2059F08091AD289D
S11348309091AE28009729F040E050E0BA010E9420
S1134840D60240E050E0BA01C4010E94D6026E963E
S11348501CAE1DAE1EAE1FAE6E97BE01665A7F4FD4
S1134860CE01815B9F4F0E947B0E811138C36E96EF
S11348708FAD6E978F936D968FAD6D978F936C966A
S11348808FAD6C978F936B968FAD6B978F9385E6F7
S113489095E29F938F938EE295E29F938F9368D7CF
S11348A0CDBFDEBF8091AD289091AE28892B09F44D
S11348B057C06E96ACACBDACCEACDFAC6E97C60147
S11348C0B5010E94482FF62E70E080E090E00E942F
S11348D0742F9B01AC01C601B5010E94762E20E025
S11348E030E048EC52E40E9402300E94482F1F92AC
S11348F06F931F92FF928CE897E29F938F937F921E
S11349006F920E94F32DA12CB12C6501EE24E39447
S113491008E010E020E830E040E050E060E070E0C3
S11349208091AD289091AE280E94DE01F301608150
S113493071811F921F928FEF8F938F93E12C00E070
S113494010E020E030E040E050E08091AD2890910C
S1134950AE280E94CC08C3010E942D2ECDBFDEBF1D
S11349608114910409F444C06E96ACACBDACCEACD9
S1134970DFAC6E97C601B5010E94482FF62E70E099
S113498080E090E00E94742F9B01AC01C601B50148
S11349900E94762E20E030E048EC52E40E9402307F
S11349A00E94482F1F926F931F92FF928CE897E208
S11349B09F938F937F926F920E94F32DF3016081F6
S11349C071811F921F928FEF8F938F93A12CB12C23
S11349D06501E12C00E010E020E030E040E050E030
S11349E0C4010E94CC08C3010E942D2ECDBFDEBF9E
S11349F0E2961EAE1FAEE297E0961EAE1FAEE097A3
S1134A00AE961EAE1FAEAE979E0124593F4FAE0127
S1134A1042595F4FBE0160597F4FCE01815B9F4F6A
S1134A200E94F20E8111AAC2AE968FADAE978F93FB
S1134A30AD968FADAD978F93E0968FADE0978F9342
S1134A40AF968FADAF978F93E2968FADE2978F932A
S1134A50E1968FADE1978F938EEC95E29F938F93C0
S1134A608EE295E29F938F9383D6CDBFDEBF809174
S1134A70AD289091AE28892B09F44DC0AE968FAD28
S1134A80AE978F93AD968FADAD978F93E0968FAD24
S1134A90E0978F93AF968FADAF978F93E2968FADDC
S1134AA0E2978F93E1968FADE1978F938DEF95E227
S1134AB09F938F937F926F920E94F32DA12CB12C20
S1134AC06501EE24E39408E010E020E830E048E0DB
S1134AD050E060E070E08091AD289091AE280E9493
S1134AE0DE01F301608171811F921F928FEF8F931A
S1134AF08F93E12C00E010E028E030E040E050E04B
S1134B008091AD289091AE280E94CC08C3010E94E8
S1134B102D2ECDBFDEBF81149104D1F1AE968FADA1
S1134B20AE978F93AD968FADAD978F93E0968FAD83
S1134B30E0978F93AF968FADAF978F93E2968FAD3B
S1134B40E2978F93E1968FADE1978F938DEF95E286
S1134B509F938F937F926F920E94F32DF301608154
S1134B6071811F921F928FEF8F938F93A12CB12C81
S1134B706501E12C00E010E028E030E040E050E086
S1134B80C4010E94CC08C3010E942D2ECDBFDEBFFC
S1134B90AC961EAE1FAEAC97AA961EAE1FAEAA97D9
S1134BA0A8961EAE1FAEA8979E012A593F4FAE018C
S1134BB048595F4FBE0166597F4FCE01815B9F4FBD
S1134BC00E94350F811129C2A8968FADA8978F93A3
S1134BD0A7968FADA7978F93AA968FADAA978F9319
S1134BE0A9968FADA9978F93AC968FADAC978F9301
S1134BF0AB968FADAB978F938AE596E29F938F9395
S1134C008EE295E29F938F93B3D5CDBFDEBF8091A3
S1134C10AD289091AE28892B09F44BC0A8968FAD8E
S1134C20A8978F93A7968FADA7978F93AA968FADCA
S1134C30AA978F93A9968FADA9978F93AC968FADB2
S1134C40AC978F93AB968FADAB978F9388E896E232
S1134C509F938F937F926F92C6D7A12CB12C65013D
S1134C60EE24E39408E010E020E830E040E150E076
S1134C7060E070E08091AD289091AE280E94DE0142
S1134C80F301608171811F921F928FEF8F938F9335
S1134C90E12C00E010E020E130E040E050E08091C1
S1134CA0AD289091AE280E94CC08C301D6D7CDBFC1
S1134CB0DEBF81149104C1F1A8968FADA8978F939C
S1134CC0A7968FADA7978F93AA968FADAA978F9328
S1134CD0A9968FADA9978F93AC968FADAC978F9310
S1134CE0AB968FADAB978F9388E896E29F938F93A3
S1134CF07F926F9278D7F301608171811F921F9226
S1134D008FEF8F938F93A12CB12C6501E12C00E0E0
S1134D1010E020E130E040E050E0C4010E94CC0803
S1134D20C3019BD7CDBFDEBFA6961EAE1FAEA6970E
S1134D30A4961EAE1FAEA497A0961EAE1FAEA0975B
S1134D409E01225A3F4FAE014E595F4FBE016C592E
S1134D507F4FCE01815B9F4F0E9430118111ACC106
S1134D60A0968FADA0978F936F968FAD6F978F930B
S1134D70A4968FADA4978F93A3968FADA3978F938B
S1134D80A6968FADA6978F93A5968FADA5978F9373
S1134D908DED96E29F938F938EE295E29F938F938E
S1134DA0E7D4CDBFDEBF8091AD289091AE28892B8A
S1134DB009F44BC0A0968FADA0978F936F968FADDB
S1134DC06F978F93A4968FADA4978F93A3968FAD6F
S1134DD0A3978F93A6968FADA6978F93A5968FAD25
S1134DE0A5978F938AE097E29F938F937F926F9218
S1134DF0FAD6A12CB12C6501EE24E39408E010E06E
S1134E0020E830E048E150E060E070E08091AD28B7
S1134E109091AE280E94DE01F301608171811F929E
S1134E201F928FEF8F938F93E12C00E010E028E125
S1134E3030E040E050E08091AD289091AE280E948F
S1134E40CC08C3010AD7CDBFDEBF81149104C1F1E0
S1134E50A0968FADA0978F936F968FAD6F978F931A
S1134E60A4968FADA4978F93A3968FADA3978F939A
S1134E70A6968FADA6978F93A5968FADA5978F9382
S1134E808AE097E29F938F937F926F92ACD6F3015F
S1134E90608171811F921F928FEF8F938F93A12C4A
S1134EA0B12C6501E12C00E010E028E130E040E0A5
S1134EB050E0C4010E94CC08C301CFD6CDBFDEBFF1
S1134EC0C4010E94A50AF12CCE01019636D688238E
S1134ED009F42ACCF201808181113DC125CC67E817
S1134EE075E28EE295E233D48091AD289091AE289C
S1134EF0009739F1A12CB12C6501EE24E39408E06C
S1134F0010E020E830E040E050E060E070E00E9413
S1134F10DE011F921F928FEF8F938F93E12C00E09D
S1134F2010E020E030E040E050E06BEA75E2809170
S1134F30AD289091AE280E94CC080F900F900F904E
S1134F400F908114910409F453CD1F921F928FEF97
S1134F508F938F93A12CB12C6501E12C00E010E01C
S1134F6020E030E040E050E06BEA75E2C4010E94CA
S1134F70CC080F900F900F900F903ACD6FE076E22F
S1134F808EE295E2E4D38091AD289091AE2800970B
S1134F9039F1A12CB12C6501EE24E39408E010E072
S1134FA020E830E048E050E060E070E00E94DE017C
S1134FB01F921F928FEF8F938F93E12C00E010E0EC
S1134FC028E030E040E050E065E376E28091AD28EF
S1134FD09091AE280E94CC080F900F900F900F90E4
S1134FE08114910409F4D4CD1F921F928FEF8F93F3
S1134FF08F93A12CB12C6501E12C00E010E028E096
S113500030E040E050E065E376E2C4010E94CC0861
S11350100F900F900F900F90BBCD6AE976E28EE26D
S113502095E295D38091AD289091AE28009739F1FF
S1135030A12CB12C6501EE24E39408E010E020E8F3
S113504030E040E150E060E070E00E94DE011F9239
S11350501F928FEF8F938F93E12C00E010E020E1FB
S113506030E040E050E06CEB76E28091AD28909126
S1135070AE280E94CC080F900F900F900F908114CF
S1135080910409F451CE1F921F928FEF8F938F9347
S1135090A12CB12C6501E12C00E010E020E130E00E
S11350A040E050E06CEB76E2C4010E94CC080F9023
S11350B00F900F900F9038CE6CE177E28EE295E27C
S11350C046D38091AD289091AE28009739F1A12C58
S11350D0B12C6501EE24E39408E010E020E830E010
S11350E048E150E060E070E00E94DE011F921F92F0
S11350F08FEF8F938F93E12C00E010E028E130E0F4
S113510040E050E061E477E28091AD289091AE28D0
S11351100E94CC080F900F900F900F90811491046F
S113512009F4CECE1F921F928FEF8F938F93A12CF1
S1135130B12C6501E12C00E010E028E130E040E012
S113514050E061E477E2C4010E94CC080F900F9014
S11351500F900F90B5CEF1100BC08091AD289091B7
S1135160AE28009729F040E050E0BA010E94D60230
S1135170A2961CAE1DAE1EAE1FAEA297BE01625A11
S11351807F4FCE018B5A9F4F0E94C70C811191C053
S113519040E050E0BA01C4010E94D602A2968FAD4D
S11351A0A2978F93A1968FADA1978F93A0968FAD61
S11351B0A0978F936F968FAD6F978F9385E697E245
S11351C09F938F938EE295E29F938F93D1D2A29671
S11351D0ACACBDACCEACDFACA297C601B50158D621
S11351E0F62E70E080E090E07FD69B01AC01C60112
S11351F0B5017CD520E030E048EC52E403D748D632
S11352001F926F931F92FF9287E897E29F938F9369
S11352107F926F92E8D48091AD289091AE28CDBF53
S1135220DEBF009741F1A12CB12C6501EE24E3947B
S113523008E010E020E830E040E050E060E070E09A
S11352400E94DE01F301608171811F921F928FEF32
S11352508F938F93E12C00E010E020E030E040E0F9
S113526050E08091AD289091AE280E94CC080F9018
S11352700F900F900F9081149104C9F0F301608195
S113528071811F921F928FEF8F938F93A12CB12C5A
S11352906501E12C00E010E020E030E040E050E067
S11352A0C4010E94CC080F900F900F900F90C3017F
S11352B0D4D46E961CAE1DAE1EAE1FAE6E97BE014C
S11352C0665A7F4FCE018B5A9F4F0E94300D811139
S11352D09DC06E968FAD6E978F936D968FAD6D97C3
S11352E08F936C968FAD6C978F936B968FAD6B97F6
S11352F08F9380EA97E29F938F938EE295E29F9338
S11353008F9336D26E96CCACDDACEEACFFAC6E9720
S1135310C701B601BDD5E7966CAF7DAF8EAF9FAF29
S1135320E797E5962EAD3FADE597B90180E090E0B3
S1135330DBD59B01AC01C701B601D8D420E030E035
S113534048EC52E45FD6A4D51F926F93E5963FAD27
S1135350E5973F93E4968FADE4978F9388EB97E2BC
S11353609F938F937F926F923ED48091AD289091BA
S1135370AE28CDBFDEBF009741F1A12CB12C650151
S1135380EE24E39408E010E020E830E048E050E048
S113539060E070E00E94DE01F301608171811F9280
S11353A01F928FEF8F938F93E12C00E010E028E0A1
S11353B030E040E050E08091AD289091AE280E940A
S11353C0CC080F900F900F900F9081149104C9F0A6
S11353D0F301608171811F921F928FEF8F938F93DE
S11353E0A12CB12C6501E12C00E010E028E030E0B4
S11353F040E050E0C4010E94CC080F900F900F9041
S11354000F90C4010E94A50AC30127D4FF24F3947A
S11354108BC9A0E0B0E0EEE0FAE2A4C66C018B0117
S113542088EBE82E80E2F82EF701C191D1917F013B
S1135430209721F08D859E85892B29F4F80110820F
S1135440118285EF10C08881813071F7B601CE01D9
S113545001960E945932892B39F78F859889F80172
S11354608083918380E0CDB7DEB7E8E094C6A0E006
S1135470B0E0ECE3FAE276C66C018B0188EBE82E2F
S113548080E2F82EF701C191D1917F01209721F09C
S11354908D859E85892B29F4F8011082118285EF70
S11354A010C08881833071F7B601CE0101960E9445
S11354B05932892B39F78F859889F8018083918334
S11354C080E0CDB7DEB7E8E066C6A0E0B0E0EAE68B
S11354D0FAE248C66C018B0188EBE82E80E2F82ED4
S11354E0F701C191D1917F01209721F08D859E858F
S11354F0892B29F4F8011082118285EF0FC088816D
S1135500843071F7B601CE010196D3D7892B41F7C8
S11355108F859889F8018083918380E0CDB7DEB7C9
S1135520E8E039C6A0E0B0E0E7E9FAE21BC66C01A6
S11355308B0188EBE82E80E2F82EF701C191D1911E
S11355407F01209721F08D859E85892B29F4F80110
S11355501082118285EF0FC08881823071F7B60105
S1135560CE010196A6D7892B41F78F859889F8013A
S11355708083918380E0CDB7DEB7E8E00CC6A0E07D
S1135580B0E0E4ECFAE2EEC56C018AE0F6011192B7
S11355908A95E9F708EB10E2F801C191D1918F01E6
S11355A08D859E85892B69F48FE390E013D3EC01FC
S11355B0009799F140E053E06EE370E20E94BE1B55
S11355C02CC08881833071F08430B1F08130F9F4DB
S11355D088E190E0FFD27C010097B9F0BE010E94FF
S11355E0251713C089E190E0F5D27C01009769F09A
S11355F0BE010E949C1709C086E190E0EBD27C01B9
S1135600009719F0BE010E94281CEF86F88AF8E280
S1135610083B1F0709F0C0CFC7CFF601C087D18769
S1135620CDB7DEB7E8E0B7C508958FEA98E20E94E7
S1135630EA2085EA98E2A3CF08958FEA98E20C94D1
S1135640EB200895A8E0B0E0E7E2FBE28DC58C0111
S11356507B0186E0F80111928A95E9F7BE01695F42
S11356607F4FC701D6DE811107C08F819885F8016D
S11356708283938381E029C0BE016B5F7F4FC701A2
S1135680F6DE811107C08D819E81F80182839383A8
S113569083E01BC0BE016D5F7F4FC70116DF811120
S11356A007C08B819C81F8018283938384E00DC0C1
S11356B0BE016F5F7F4FC70135DF811108C089814B
S11356C09A81F8018283938382E0818304C0F80184
S11356D01182128213822896E6E05FC5FC01828162
S11356E093810097C1F021812223A9F061157105EE
S11356F091F0233039F0243059F0223079F40C94AD
S11357008D2008959A01AB0164810C94D8180895F2
S11357100C94301E08958FEE9FEF089588EF9FEF4D
S11357200895FC0182819381009759F021812223FD
S113573041F06115710529F0223031F40C94702088
S113574008958FEE9FEF089588EF9FEF0895A6E0E8
S1135750B0E0ECEAFBE20AC58B01BC01CE01019684
S113576071DFB801CE010196DCDF2696E4E017C5AF
S1135770A7E0B0E0EDEBFBE2F7C468897989CE01DC
S1135780019660DF9E012C5E3F4F4A895B8960E091
S113579070E0CE010796BAD6181619061CF000E080
S11357A010E016C08C010F5F1F4FC80146D57C0165
S11357B00097A9F39E012C5E3F4F4A895B89B8018B
S11357C0A5D6B701CE010196ACDF8C01C701CDD5BA
S11357D0C8012796E6E0E1C4FC0182819381009729
S11357E049F02181222331F0213031F470E00C940E
S11357F0381608958FEE089588EF0895A6E0B0E076
S1135800E3E0FCE2B4C4162FBC01CE0101961ADF1A
S1135810612FCE010196E0DF2696E3E0C1C4A4E047
S1135820B0E0E4E1FCE2A1C4FC0182819381009731
S1135830C9F0F180FF20B1F021E0F21215C08B0114
S1135840BE016F5F7F4F0E94C01649815A816B81F0
S11358507C81F801452B462B472B11F0F08205C0C3
S1135860108203C08FEE01C088EF2496E5E096C451
S1135870A6E0B0E0EDE3FCE279C48B01BC01CE010B
S11358800196E0DEB801CE010196C9DF2696E4E078
S113589086C4A0E0B0E0EEE4FCE264C48C01FC0148
S11358A082819381009709F4E5C02181222309F4C0
S11358B0E1C0FA01C281D381C62ED12CE12CF12C96
S11358C0F4E1CF16D10450F4DA01F601EA5AFF4F9D
S11358D01EC4213009F0D2C00E94621780E0CFC0FC
S11358E04D915C914230510509F0C6C0233029F036
S11358F0243079F0223091F751C0EB84FC8409857F
S11359001A852C813D814A815B8168810E94A61899
S1135910B6C00B851C8529853A854C815D816A81D9
S11359207B810E94511DABC04D915C91413051056A
S113593009F0A2C0233051F0243009F09FC04C81FB
S11359405D816A817B810E94D31D1EC02C813D81B3
S11359504A815B8168810E94BA1816C0233031F0F5
S1135960243061F0223009F089C018C02C813D81B7
S11359704A815B8168810E94D81806C04C815D8190
S11359806A817B810E94301E21E04C815D81481731
S1135990590709F420E0822F819571C04C815D8103
S11359A06A817B810E948D2099CF8D919C91F80111
S11359B08483958393CFF8014481558160E070E03E
S11359C04D935D936D937C93139788CF213009F0A9
S11359D055C06C910E94D21652C0223009F04EC0BC
S11359E04D915D916D917C910E94451F48C022307C
S11359F009F044C0BA010E94EA1F41C0223009F0F4
S1135A006DCF6C910E947E1F69CF2230B9F5BA0127
S1135A100E941B2034C0223089F56C910E94AC1F77
S1135A205DCF223059F5BA010E94322028C02230BD
S1135A3029F56C910E94C91F51CF2230F9F4BA01A3
S1135A400E944F201CC02130C9F46D917C910E94AA
S1135A50381615C0213091F4BA010E94C0160FC047
S1135A60243061F40E94141F0AC0243039F40E94C7
S1135A70261D05C08FEE03C08BEF01C088EFCDB7A4
S1135A80DEB7E8E088C3AF92BF92CF92DF92EF9285
S1135A90FF920F931F93FC0120919C2830919D2825
S1135AA040919E2850919F286091A0287091A12830
S1135AB08091A2289091A328A080B180C280D38035
S1135AC0E480F5800681178174D39F77208731871E
S1135AD04287538764877587868797871F910F91BD
S1135AE0FF90EF90DF90CF90BF90AF9008950F9309
S1135AF01F93FC0180E1DF011D928A95E9F77F770E
S1135B00008311832283338344835583668377839D
S1135B10CF01B9DF1F910F9108950F931F93FC01DB
S1135B207F77008311832283338344835583668381
S1135B307783A9DF1F910F910895A0E0B0E0E2EA16
S1135B40FDE209C3FC0150846184728483849484DB
S1135B50D585C685B785252D362D472D582D692D1C
S1135B607D2F8C2F9B2FA0E042D3C4F0A0909C28C3
S1135B70B0909D28C0909E28D0909F28E090A028A7
S1135B80F090A1280091A2281091A3281F7726D372
S1135B9009F020F4CF0177DF81E001C080E0CDB7C8
S1135BA0DEB7EFE0F1C2CF93DF93DC01CB019C01C0
S1135BB0AD0160E070E080E090E00E94FE20DF91A3
S1135BC0CF91089580EB98E251C0089580EB98E25C
S1135BD05FC00895BC0181E090E015C3089500976B
S1135BE009F0C3C30895A1E0B0E0E8EFFDE2BAC252
S1135BF00C851D8588E0F80111928A95E9F79E01CC
S1135C00205F3F4F4E855F8560E070E0CE010196D6
S1135C107DD47C016C01FFEFCF1ADF0AC6010DD3DE
S1135C20F80180839183009781F09E01205F3F4FAC
S1135C304E855F85B6016AD4F801E282F3828481DD
S1135C40958101968483958305C08DEF9FEFF801BC
S1135C50868397832196E8E09EC2009731F0FC0189
S1135C6080819181009709F080C30895CF93DF93D9
S1135C70EC0184E0FE0111928A95E9F762E070E09C
S1135C8081E090E0C0D288839983DF91CF91089519
S1135C900F931F93CF93DF93009719F1EC01888141
S1135CA09981892BF1F02A813B8188819981211581
S1135CB03105B1F021503048220F331FFC01E20FAF
S1135CC0F31F008111810115110521F0C801C5DF01
S1135CD0C80185DF8A819B8101978A839B83E3CFF7
S1135CE044D3DF91CF911F910F9108955058BB2752
